:020000040800F2
:1000000000000220A9250008390300083103000878
:100010003303000835030008370300080000000020
:100020000000000000000000000000003B0300088A
:100030003D030008000000003F03000829040008F9
:10004000ED250008ED250008ED250008ED25000848
:10005000ED250008ED250008ED250008ED25000838
:10006000ED250008ED250008ED250008ED25000828
:10007000ED250008ED2500082D240008ED250008D9
:10008000ED250008ED250008ED250008ED25000808
:10009000ED250008ED250008ED250008ED250008F8
:1000A000ED250008ED250008ED250008ED250008E8
:1000B000ED250008ED250008ED250008ED250008D8
:1000C000ED250008ED250008ED250008ED250008C8
:1000D000ED250008ED250008ED250008ED250008B8
:1000E000ED250008ED250008ED250008ED250008A8
:1000F000ED250008ED250008ED250008ED25000898
:10010000ED250008ED250008ED250008ED25000887
:10011000ED250008ED250008ED250008ED25000877
:10012000ED250008ED250008ED250008ED25000867
:10013000ED250008ED250008ED250008ED25000857
:10014000ED250008ED250008ED250008ED25000847
:10015000ED250008ED250008ED250008ED25000837
:10016000ED250008ED250008ED250008ED25000827
:10017000ED250008ED250008ED250008ED25000817
:10018000ED250008ED250008ED250008ED25000807
:10019000ED250008ED250008ED250008ED250008F7
:1001A000ED250008ED250008ED2500080000000001
:1001B0003C4B1A68002142F001021A6099601A68EB
:1001C00022F0847222F480321A60374A5A601A6828
:1001D00082B022F480221A60D960009101911A68DD
:1001E00042F480321A602F4B1A6802F400320192F6
:1001F000009A01320092019A1AB9009AB2F5A04F02
:10020000F1D11B6813F4003318BF01230193019B44
:10021000012B0CD0234B9A6822F400029A60234AE7
:10022000C3F884201A6842F080621A6030E01D4BE7
:100230001F491A6C42F080521A640A6842F4404224
:100240000A609A689A609A6842F400429A609A68D2
:1002500042F4A0529A60174A5A601A6842F08072BB
:100260001A6019680F4A8901FBD5134B40F20561EA
:100270001960936823F003039360936843F00203CB
:100280009360084B9B6803F00C03082BF9D1C1E77E
:100290001A681201FCD5094B4FF000629A6002B057
:1002A000704700BF0038024010300024804000300A
:1002B0000070004008544007003C024000ED00E0A0
:1002C000174A1849936803F00C03042B03D0082B3A
:1002D00003D0154B18E0154B16E05068536810F426
:1002E000800F03F03F03506814BF104A0E4AB2FB60
:1002F000F3F30B4A5268C2F30142C0F38810013293
:1003000043435200B3FBF2F30B60054B9B68C3F30E
:1003100003130B441A790B68D3400B60704700BF7E
:1003200000380240040000200024F40000127A008B
:10033000FEE7FEE7FEE7FEE770477047704770474D
:10034000244B1A78012A194610D159884A1C92B2B6
:10035000B1F5C87F5A8004D900225A804FF4006258
:1003600012E0C82A34D14FF4006213E01A78032A4D
:1003700013D159884A1C92B2B1F5C87F5A8005D969
:1003800000225A804FF48052134B20E0C82A1FD11C
:100390004FF48052104B1A8370471A7802F0FF0016
:1003A000B2B95A88B2F5C87F08D10C4B1020188317
:1003B000A3F540634FF48050188302E0B2F5487F04
:1003C00002D001324A8070475880044B10225A8371
:1003D000704700BF7004002000000240000C024083
:1003E0000F4B104A1B69918813F4005F4EF2010312
:1003F00008BF4FF4604343EA41039BB2B3F57F4F1C
:10040000938002D10123D38070474EF20F018B42BB
:1004100005D113891BB9D388012B08BF937270478C
:10042000000802407004002008B5054A1368013333
:100430001360FFF785FFBDE80840FFF7D1BF00BF9D
:1004400034460020384A2DE9F043D57A92F89C8052
:10045000D2F89470D2F898E0D2F8A0400831002B7E
:100460005AD0B0F804C0043B9BB20FFA8CF60830A7
:100470002DB116F5967FB4BF0025012504E0B6F531
:10048000C87FD4BF00250125284E4FF0080915B1BB
:10049000A6F8189001E0A6F81A90DFF89490B9F841
:1004A00000600EBBA84501D1013420E0BC4204D25B
:1004B000744534BF0024012400E0022492F8A460B3
:1004C00026B1194C013E84F8A4600224D2F8906051
:1004D00002EB0608013606F07F0688F80C40C2F8E9
:1004E0009060A846002402E0013EA9F8006016785A
:1004F000022E4FF0000603BF21F8086C21F8066CAD
:1005000021F8046C21F808CC1CBF21F8066C21F8F6
:1005100004CC21F8026CA1E7D57282F89C80C2F865
:10052000A040BDE8F08300BF70040020001002402E
:100530001800002008B501F0C5FC01F0DFFC064BF7
:1005400000BF013BFCD14BF6803001F041FE034B74
:100550004FF480421A6008BD40420F0000E100E005
:1005600008B50022054840F2D56100F001F9044BBE
:1005700000221A60BDE8084000F032B81D050020D6
:1005800034460020144BFF2183F8AF10202183F85C
:10059000B0100C21C3F894100621C3F89810042160
:1005A00083F8A4100D4900224968C3F89020A3F8ED
:1005B000BC21C3F88C2083F8AE20A3F8B22083F8C6
:1005C0009C20C3F8A020C3F8A8101A81A3F8BE216C
:1005D00083F8C0211A7070477004002018000020B2
:1005E0002DE9F3470124404D404E684600F0A4FC3D
:1005F0004FF00008204621468DF806808DF80780D0
:100600008DF804408DF8054000F00AFE4FF4C05309
:1006100028466946009300F057FC2146102000F060
:10062000FFFD102730466946009700F04DFC21463B
:10063000082000F0F5FD69462D48009700F044FCC5
:100640002046214600F0ECFD4FF4806928466946BB
:10065000CDF8009000F038FC3846214600F0E0FD6F
:100660004FF0080A30466946CDF800A000F02CFC97
:10067000A6F81AA021468DF8048041204FF0020808
:100680008DF805808DF8074000F0CAFD28466946C0
:10069000CDF8008000F018FC69461648CDF80090AF
:1006A00000F012FC3846214600F0BAFD2023304607
:1006B0006946009300F008FC2146052000F0B0FDDB
:1006C0004FF4005369460C4800938DF8074000F042
:1006D000FBFB4FF4007328466946009300F0F4FBDF
:1006E00002B0BDE8F08700BF0000024000100240E9
:1006F000000C02400018024000080240144B15494B
:100700004FF0FF32C3F88020C3F88420C3F8802163
:10071000C3F88421042243F8F02C0F4B1A6842F0EE
:1007200001021A6008680D4A02400A601A6822F045
:10073000847222F480321A601A6822F480221A60CD
:100740000B6823F4FE030B60054B00221A60704710
:1007500000E100E0403A0240003802400000FFF8AB
:10076000803C02404368026882F30888184700BF53
:1007700010B51446FFF71CFD3CB14FF000604FF47C
:100780000041BDE8104000F053B810BD054B064ACB
:100790005A60064AF02182F8231000229A6007224C
:1007A0001A60704710E000E03F90020000ED00E0AA
:1007B00040F0BF60024B40F40030D860704700BF8B
:1007C00000ED00E0C278037810B512B3164AD16884
:1007D0004278C943C1F30221C1F10404E4B2A2404A
:1007E000D4B20F220A4181780A40224303F16043C8
:1007F00003F561431201D2B283F80023037801228A
:10080000590903F01F0302FA03F3084A42F82130A2
:1008100010BD5A09012103F01F03994002F1200382
:10082000024A42F8231010BD00ED00E000E100E0B4
:1008300021F0604121F07F01014B0843986070472F
:1008400000ED00E0044B1A6909B1104301E022EA0F
:1008500000001861704700BF00ED00E0044B1A680B
:1008600004280CBF42F0040222F004021A60704710
:1008700010E000E0014BC0B218707047003C02402D
:10088000044B1A6810B142F4807201E022F48072C5
:100890001A607047003C0240044B1A6810B142F4E1
:1008A000007201E022F400721A607047003C0240BE
:1008B000044B1A6810B142F4806201E022F48062B5
:1008C0001A607047003C0240024A136843F4006318
:1008D00013607047003C0240024A136843F480539F
:1008E00013607047003C0240044B1A69002ABFBFE6
:1008F000034A5A6002F188325A607047003C024055
:1009000023016745024A136943F0004313617047AE
:10091000003C0240044B5A69D20741BF034A9A6027
:1009200002F144329A607047003C02403B2A1908A9
:10093000024A536943F0010353617047003C02408F
:10094000034A137803F07F0318431070704700BF09
:10095000173C0240044B1A7802F0EF021A701A7822
:1009600010431870704700BF143C0240044B1A78C3
:1009700002F0F3021A701A7810431870704700BF23
:10098000143C0240024B5869C0F34710704700BF47
:10099000003C0240014B188880B27047163C024070
:1009A000014B188880B270471A3C0240014B1888EE
:1009B00080B27047163C0240014B188880B27047E5
:1009C0001A3C0240024B1878AA3818BF0120704721
:1009D000153C0240024B187800F00C00704700BF35
:1009E000143C0240044B1A6909B1104301E022EAA9
:1009F00000001861704700BF003C0240034BDB68F9
:100A0000184214BF01200020704700BF003C024084
:100A1000014BD860704700BF003C02400E4BDA68C3
:100A2000D20310D4DA68D1060FD4DA68D2050ED416
:100A3000DA6812F0EF0F0CD1DB6813F0020F14BF6D
:100A400008200920704701207047062070470220C7
:100A500070470720704700BF003C024007B50923DC
:100A60008DF80730FFF7DAFF8DF807009DF80730A3
:100A7000012BF7D09DF8070003B05DF804FB70B5BB
:100A8000064641B1012908D002290CBF4FF4007578
:100A90004FF4407503E00D4601E04FF48075FFF719
:100AA000DDFF09281ED1104C236923F44073236114
:100AB000216929432161236923F0F8032361236914
:100AC00043F002031E432661236943F4803323610C
:100AD000FFF7C4FF236923F002032361236923F096
:100AE000F803236170BD00BF003C024010B504460E
:100AF000FFF7B4FF44B1012C08D0022C0CBF4FF417
:100B000000734FF4407303E0234601E04FF4807319
:100B1000092819D10D4C226922F440722261226900
:100B200013432361236943F4004343F00403236127
:100B3000236943F480332361FFF790FF236923F493
:100B4000004323F00403236110BD00BF003C0240BA
:100B500010B50446FFF782FF44B1012C08D0022CE7
:100B60000CBF4FF400734FF4407303E0234601E0E1
:100B70004FF48073092815D10B4C226922F440727E
:100B80002261226913432361236943F00403236133
:100B9000236943F480332361FFF760FF236923F067
:100BA0000403236110BD00BF003C024010B50446A1
:100BB000FFF754FF44B1012C08D0022C0CBF4FF4B6
:100BC00000734FF4407303E0234601E04FF4807359
:100BD000092815D10B4C226922F440722261226946
:100BE00013432361236943F400432361236943F4DE
:100BF00080332361FFF732FF236923F4004323612D
:100C000010BD00BF003C0240F8B5054616461F4621
:100C1000FFF724FF092814D10A4C236923F44073F9
:100C20002361236943F440732361236943F0010383
:100C30002361C5E90067FFF711FF236923F0010372
:100C40002361F8BD003C024070B505460E46FFF733
:100C500005FF092813D10A4C236923F4407323614B
:100C6000236943F400732361236943F00103236183
:100C70002E60FFF7F3FE236923F00103236170BDAB
:100C8000003C024070B505460E46FFF7E7FE092816
:100C900013D10A4C236923F440732361236943F47D
:100CA00080732361236943F0010323612E80FFF7E2
:100CB000D5FE236923F00103236170BD003C02408F
:100CC00070B505460E46FFF7C9FE092811D1094C3B
:100CD000236923F44073236123692361236943F06B
:100CE000010323612E70FFF7B9FE236923F001038E
:100CF000236170BD003C024038B504460D46FFF745
:100D0000ADFE092809D1054B18881DB180B220EA33
:100D1000040001E0204380B2188038BD163C024038
:100D200038B504460D46FFF799FE092809D1054B51
:100D300018881DB180B220EA040001E0204380B28F
:100D4000188038BD1A3C024038B504460D46FFF7FE
:100D500085FE092809D1054B188815B1204380B2BA
:100D600002E080B220EA0400188038BD163C024040
:100D700038B504460D46FFF771FE092809D1054B29
:100D8000188815B1204380B202E080B220EA040046
:100D9000188038BD1A3C024010B50446FFF75EFECD
:100DA000092804BF014B1C7010BD00BF153C024058
:100DB00070B506460C461546FFF750FE092809D1C6
:100DC000054B187800F01F00304345EA000244EA62
:100DD0000201197070BD00BF143C0240034A137831
:100DE00043F002031370FFF739BE00BF143C02400A
:100DF00008B52C4B984205D10120014600F04CFA71
:100E0000012048E0284B984205D10220012100F042
:100E100043FA02203FE0254B984205D104200121EE
:100E200000F03AFA042036E0214B984205D1082020
:100E3000012100F031FA08202DE01E4B984205D127
:100E40001020012100F028FA102024E01A4B9842CB
:100E500005D12020012100F01FFA20201BE0174BB4
:100E6000984205D14020012100F016FA402012E0FE
:100E7000134B984205D18020012100F00DFA80200B
:100E800009E0104B98420BD14FF48070012100F023
:100E900003FA4FF480700021BDE8084000F0FCB96F
:100EA00008BD00BF000002400004024000080240EC
:100EB000000C0240001002400014024000180240E2
:100EC000001C024000200240F0B50E680022012301
:100ED000934003EA060E9E452AD155000323046879
:100EE000AB40DB431C4004600C79076804FA05FC46
:100EF000013C4CEA0707012C076011D884684F7940
:100F00001C4084608468AF4027438760446824EABB
:100F10000E0444608C7947689440A4B23C4344601A
:100F2000C4682340C360CB79C468AB402343C3602B
:100F30000132102ACBD1F0BD4FF6FF7303600023BE
:100F4000037143718371C371704782B04FF4803372
:100F50000193019B0B430193019BC361C161019B01
:100F6000C361C3690193C369019302B07047036908
:100F7000194214BF012000207047006980B27047F9
:100F80004369194214BF012000207047406980B2B4
:100F9000704701837047418370470AB101837047EE
:100FA00041837047416170474369594041617047CF
:100FB00001F00703C90800EB810010B59B00046A2B
:100FC0000F21994024EA01010162016A9A4011430C
:100FD000016210BD0A4B1A68002142F001021A603A
:100FE00099601A6822F0847222F480321A60054AED
:100FF0005A601A6822F480221A60D960704700BFD4
:101000000038024010300024024B00221A70187081
:10101000704700BF02380240034A136823F0F80308
:1010200043EAC0001060704700380240014B18606E
:10103000704700BF00004742064B002201281A708B
:101040001A7002D0042802D0704718707047052229
:101050001A70704770380240014B1860704700BF2B
:10106000800E474210B5029C40EA046001435B08D1
:10107000013B41EA821242EA0340014B586010BD35
:1010800000380240014B1860704700BF60004742C3
:101090000907034B41EA8010C3F88400704700BF82
:1010A00000380240014B1860704700BF680047429B
:1010B000014B1860704700BF4C004742034A9368D9
:1010C00023F0EC63194308439060704700380240F6
:1010D000034A936823F078431943084390607047AC
:1010E00000380240034A936823F0030318439060DA
:1010F000704700BF00380240024B986800F00C00B7
:10110000704700BF00380240034A936823F0F003A1
:1011100018439060704700BF00380240034A93684C
:1011200023F4E05318439060704700BF003802403A
:10113000034A936823F4604343EAC0009060704719
:10114000003802401D4A936803F00C03042B10B5CD
:1011500003D0082B03D01A4B18E01A4B16E0516845
:10116000536811F4800F03F03F03516814BF154A10
:10117000134AB2FBF3F3114A5268C2F30142C1F3BE
:10118000881101324B435200B3FBF2F30B4A036068
:1011900093680D49C3F30313CC5C0368E3404360D9
:1011A0009468C4F382240C5D23FA04F4846092688A
:1011B000C2F342328A5CD340C36010BD00380240A3
:1011C0000024F40000127A002800002000F440738C
:1011D000094AB3F5407F01BF936820F0704123F4C2
:1011E000F81321F4407104BF0B439360136FC0F3F5
:1011F0000B0018431067704700380240014B18601D
:10120000704700BF3C0E4742014B1860704700BF5B
:10121000400E4742014B1860704700BF5C014742D7
:10122000044B1A6B09B1104301E022EA0000186375
:10123000704700BF00380240044B5A6B09B110439D
:1012400001E022EA00005863704700BF0038024006
:10125000044B9A6B09B1104301E022EA0000986345
:10126000704700BF00380240044B1A6C09B11043AC
:1012700001E022EA00001864704700BF0038024015
:10128000044B5A6C09B1104301E022EA0000586493
:10129000704700BF00380240044B1A6909B110437F
:1012A00001E022EA00001861704700BF00380240E8
:1012B000044B5A6909B1104301E022EA0000586169
:1012C000704700BF00380240044B9A6909B11043CF
:1012D00001E022EA00009861704700BF0038024038
:1012E000044B1A6A09B1104301E022EA00001862B7
:1012F000704700BF00380240044B5A6A09B11043DE
:1013000001E022EA00005862704700BF0038024046
:10131000044B1A6D09B1104301E022EA0000186580
:10132000704700BF00380240044B5A6D09B11043AA
:1013300001E022EA00005865704700BF0038024013
:10134000044B9A6D09B1104301E022EA0000986550
:10135000704700BF00380240044B1A6E09B11043B9
:1013600001E022EA00001866704700BF0038024022
:10137000044B5A6E09B1104301E022EA000058669E
:10138000704700BF00380240044B1A7809B110437F
:1013900001E022EA00001870704700BF0D380240DB
:1013A0004209012A074B01D11B6803E0022A0CBF46
:1013B0001B6F5B6F00F01F0023FA00F000F00100CC
:1013C000704700BF0038024007B500230193312069
:1013D000FFF7E6FF019B01330193019BB3F5A04F9B
:1013E00001D00028F3D03120FFF7DAFF003018BF1A
:1013F000012003B05DF804FB024A536F43F0807391
:101400005367704700380240034BDB68184214BF33
:1014100001200020704700BF00380240014B1870C7
:10142000704700BF0E38024008B5134B984207D1F1
:101430004FF400100121FFF753FF4FF4001014E0A8
:101440000E4B984207D14FF480000121FFF748FF6F
:101450004FF4800009E00A4B98420BD14FF4000092
:101460000121FFF73DFF4FF400000021BDE80840D7
:10147000FFF736BF08BD00BF0054004000580040D1
:10148000005C00407FB5868826F03F06044636049F
:1014900068460D46360CFFF755FE029A2C48B2FB03
:1014A000F0F081B20E43A68023882A4E23F0010378
:1014B0001B041B0C23802B68B3420AD85B0001314C
:1014C000B2FBF3F39BB2032B89B298BF04232184B0
:1014D00023E0EE884BF6FF718E421BBF19214B4370
:1014E00003EB4303B2FBF3F315BF9BB2B2FBF3F381
:1014F00043F480439BB2C3F30B020AB943F00103E8
:101500004FF4967101FB00F24FF47A7192FBF1F205
:10151000013292B243F400432284A3832388698971
:10152000AA889BB243F001032380238823F48163BC
:1015300023F002031B040A431B0C13439BB22380BA
:101540002A89AB8913439BB2238104B070BD00BFCD
:1015500040420F00A086010041F28833036000235F
:1015600083804BF6FF72038143814FF48043C28036
:1015700083817047038819B19BB243F0010303E0F4
:1015800023F001031B041B0C03807047038819B16F
:101590009BB243F4807303E023F480731B041B0CA1
:1015A00003807047038819B19BB243F4007303E0D2
:1015B00023F400731B041B0C0380704712B141F02D
:1015C000010101E001F0FE0189B201827047038848
:1015D00019B19BB243F4806303E023F480631B04DE
:1015E0001B0C0380704783899BB201F0FE0123F03E
:1015F000FE030B4383817047838919B19BB243F08B
:10160000010303E023F001031B041B0C83817047DB
:10161000038819B19BB243F0400303E023F0400379
:101620001B041B0C03807047038829B16FEA4343F6
:101630006FEA53439BB201E0C3F30E03038070478C
:10164000038819B99BB243F0800303E023F08003C1
:101650001B041B0C03807047838BB1F5804F1BBFAD
:1016600023F480431B049BB21B0C08BF43F480434C
:10167000838370470388B1F5006F15BF23F40063BF
:101680009BB21B0443F4006318BF1B0C038070471C
:101690000388B1F5005F15BF23F400539BB21B0410
:1016A00043F4005318BF1B0C03807047038819B123
:1016B0009BB243F0100303E023F010031B041B0C48
:1016C0000380704701827047008AC0B27047038868
:1016D00019B19BB243F4805303E023F480531B04FD
:1016E0001B0C038070470388B1F5006F15BF23F40E
:1016F00000639BB21B0443F4006318BF1B0C038000
:101700007047038819B19BB243F0200303E023F034
:1017100020031B041B0C03807047008BC0F30720C1
:101720007047838819B19BB243F4006303E023F44C
:1017300000631B041B0C83807047838819B19BB224
:1017400043F4805303E023F480531B041B0C838079
:10175000704782B0002301930190019B19440191CD
:10176000019B188880B202B0704783889BB20AB18F
:10177000194301E023EA010181807047838A9AB20C
:10178000038B10B542EA034321F07F4404EA0300CF
:10179000431A5842584110BD838A008B9BB243EADA
:1017A000004020F07F40704782B0002300930193F7
:1017B0000B0F01900093009B21F07F4113B1019B1F
:1017C000143302E0019B090C18330193019B1B6841
:1017D000194214BF0120002002B07047C94389B2EA
:1017E000818270478388808A80B208409BB206D08D
:1017F00001F0E06113EA114314BF0120002070479B
:10180000C94389B28182704708B5154B98420BD104
:101810004FF480500121FFF76FFD4FF480500021FD
:10182000BDE80840FFF768BD0E4B984207D14FF462
:1018300080400121FFF754FD4FF4804009E00A4B3E
:1018400098420BD14FF400400121FFF749FD4FF4BE
:1018500000400021BDE80840FFF742BD08BD00BFC1
:101860000030014000380040003C004003884A88B6
:1018700010B503F441540B8813438A881343CA8874
:1018800013430A8913434A8913438A891343CA8934
:10189000134323439BB20380838B23F400631B0415
:1018A0001B0C83830B8A038210BD838B23F47B6321
:1018B00023F00F031B041B0C8383022303848B6818
:1018C000F0B5848B022BA4B239D0294F8A88002A24
:1018D000BA6814BF4FF0020E4FF0010E120242BF61
:1018E000BA6822F40002BA60D7F88460D7F884504E
:1018F0007A68C6F3881602F03F071E4AB2FBF7F279
:101900005643CA88B2F5007FC5F302754FF00A024C
:10191000B6FBF5F50EBF2D0A4FEA4E16B5FBF6F5F0
:101920006A43B2FBF3F305330A229BB2B3FBF2F333
:1019300003F001021202C3F34F0392B200E000224F
:101940009D1EADB2FE2D24BF002202231343CA8880
:1019500013439BB203840B888A881C434B8844F44E
:101960000064234313438A8913439BB28383F0BDEE
:101970000038024000127A000023038043808380F5
:10198000C380038143818381C3810723038270471E
:1019900000230222038043808380C380826083818E
:1019A0007047038819B19BB243F0400303E023F072
:1019B00040031B041B0C03807047838B19B19BB23F
:1019C00043F4806303E023F480631B041B0C8383D4
:1019D0007047038823F400631B041B0C03800388F7
:1019E0009BB21943018070470388B1F5804F15BF42
:1019F00023F480439BB21B0443F4804318BF1B0CA9
:101A0000038070474FF6FF63994203880BBF23F4AE
:101A100080739BB21B0443F4807308BF1B0C0380CC
:101A20007047838819B19BB243F0040303E023F0AD
:101A300004031B041B0C83807047838819B19BB27D
:101A400043F0100303E023F010031B041B0C8380FE
:101A50007047838B23F47B6323F00F031B0430B5A3
:101A60001B0C0C8883830223038424F40074828B70
:101A70008B88A4B2002C4C8892B242EA040242F451
:101A8000006243EA02038A8943EA02030CBF4FF46F
:101A9000807500259BB22B43838330BD808980B243
:101AA000704781817047038819B19BB243F400539A
:101AB00003E023F400531B041B0C038070470388CE
:101AC0009BB243F4805303807047012914BF008BFD
:101AD000808A80B27047008A80B2704783889BB248
:101AE0000AB1194301E023EA010181807047090925
:101AF00001238B409BB21AB1828892B2134303E058
:101B0000828892B222EA03038380704703891942D4
:101B100014BF012000207047C94389B2018170477A
:101B200010B584880389012201F00F009BB202FAEC
:101B300000F01840A4B205D009098A40144214BF2D
:101B40000120002010BD01F00F0101238B40DB4379
:101B50009BB20381704700BF036823F00103036059
:101B60000023036043608360C360036121234361FA
:101B7000294B984217D0294B98421BD0284B9842AA
:101B800020D0284B984225D0274B98422AD0274B6B
:101B900098422ED0264B984232D0264B984236D0CF
:101BA000254B984203D13D2243F8082C7047234B24
:101BB000984204D14FF4746243F8202C7047204BB4
:101BC000984204D14FF4741243F8382C70471D4BDF
:101BD000984204D14FF0746243F8502C70471A4B6E
:101BE000984203D1194A43F8642C7047184B984225
:101BF00003D1184A43F87C2C7047174B984203D105
:101C0000164A43F8942C7047154B984203D14FF075
:101C10003D5243F8AC2C70471060024028600240EF
:101C2000406002405860024070600240886002409C
:101C3000A0600240B8600240106402402864024084
:101C40004064024058640240706402403D0000203D
:101C500088640240400F0020A064024000003D2044
:101C6000B86402400268134B10B51340CC680A6890
:101C700014434A6914438A691443CA6914430A6ABB
:101C800014434A6A14438A6A14434A6B14438A6BA6
:101C900022431343036043690C6B23F00702CB6AB2
:101CA0002343134343610B6943604B6883608B6834
:101CB000C36010BD3F801CF000230360436083605D
:101CC000C360036143618361C361036243628362F2
:101CD000C3620363436383637047036811B143F0D6
:101CE000010301E023F0010303607047036811B1B1
:101CF00043F4004301E023F40043036070470368AA
:101D000011B143F0200301E023F02003036070478A
:101D100041607047406880B27047036812B143F475
:101D2000002301E023F4002303600161704703688E
:101D300011B143F4802301E023F480230360704752
:101D40000AB101617047C16070470068C0F3C040CC
:101D50007047006800F001007047406900F03800EB
:101D600070470A4B0A4A10B50A4CA04294BF184665
:101D700010468B004CBF4368036821F0F02121F02E
:101D80008211194214BF0120002010BD00600240E2
:101D9000006402400F64024010B5084A084B094C29
:101DA000A04294BF1846104611F0005F21F0F021C8
:101DB00021F0821114BFC160816010BD0064024037
:101DC000006002400F6402400B0611D543694AB11E
:101DD00043F080038029436114D0036801F01E01A1
:101DE00019430EE023F080038029436104D170473A
:101DF000802907D0002AF0D1036801F01E0123EAF0
:101E0000010101607047114A114B10B5114CA042FD
:101E100094BF1C46144621F0F02323F0C3122AB1CC
:101E2000006800F01E0000EAD12202E0406900F0E4
:101E3000800289004CBF6068206823F0821318403C
:101E400002D0101C18BF012010BD00BF006402406A
:101E5000006002400F64024010B5084A084B094C6C
:101E6000A04294BF1846104611F0005F21F0F02107
:101E700021F0821114BFC160816010BD0064024076
:101E8000006002400F6402400120704737B5002314
:101E9000012108208DF804108DF805108DF806300A
:101EA0008DF80730064CFFF7BBF902A94FF48055B7
:101EB00041F8085D2046FFF707F8658303B030BDA1
:101EC000000C024007B508200121FFF7A9F9012302
:101ED0008DF8043002A900238DF805308DF8063006
:101EE0008DF807304FF4805341F8083D0248FEF763
:101EF000EBFF03B05DF804FB000C0240024B4FF413
:101F000080525A8300F082B9000C0240F8B5314C7F
:101F10004FF4961307460E461546236028464FF4A5
:101F20000031FFF741FC30B123685A1E2260002BBC
:101F3000F4D10120F8BD28460121FFF727FB4FF41B
:101F40008053236028462449FFF718FC28B92368EA
:101F50005A1E2260002BF5D1EBE7284620210022F3
:101F6000FFF72CFB4FF48053236028461B49FFF7F3
:101F700005FC28B923685A1E2260002BF5D1D8E74A
:101F800028463946FFF79EFB4FF4805323602846CE
:101F90001349FFF7F3FB28B923685A1E2260002B70
:101FA000F5D1C6E728463146FFF78CFB4FF4961370
:101FB000236028460B49FFF7F7FB28B923685A1E10
:101FC0002260002BF5D1B4E728460121FFF7EAFA99
:101FD0000020F8BD38000020010003008200070047
:101FE000800007000400001007200121014AFFF7CC
:101FF0008DBF00BF0058004010B5072003210A4ADA
:10200000FFF784FF0023094A5C1CD15C064AE0B25A
:10201000FFF77CFF062C2346F5D107200221024A58
:10202000BDE81040FFF772BF00580040942B000835
:1020300030B5012185B04FF48000FFF715F900237A
:10204000ADF804304BF6FF73ADF806303323ADF82E
:1020500008304FF48063ADF80A3004AD4FF480438C
:10206000094CADF80C304CF2503345F8103D204689
:10207000FFF7DAF920462946FFF704FA2046012146
:10208000FFF778FA05B030BD0058004030B5174C66
:1020900085B0054601214FF48040FFF7E5F8204662
:1020A000FFF7B2FB0023ADF8023003230295ADF831
:1020B00004300F4D0823ADF80C3020464FF4007368
:1020C0006946ADF80030ADF80630FFF7EEFB284664
:1020D0006946FFF7BEFC20460121FFF76EFC28464B
:1020E0000121FFF76AFC05B030BD00BF0038004099
:1020F00000340040F7B506200121FFF791F802AD4A
:1021000001238DF806304FF44063304C45F8083D0C
:1021100002270026204629468DF804708DF80570A8
:102120008DF80760FEF7D0FE20460A210422FEF754
:102130003FFF042220460B21FEF73AFF03238DF8D0
:10214000053020464FF48053294600938DF80470E3
:102150008DF806608DF80760FEF7B6FE4FF48043F9
:10216000204629460093FEF7AFFE4FF40053204669
:1021700029460093FEF7A8FE4FF400432046294667
:102180000093FEF7A1FE20460C210522FEF710FF6A
:1021900020460D210522FEF70BFF20460F210522C8
:1021A000FEF706FF2046052204F580640E21FEF7A7
:1021B000FFFE4023204629460093FEF785FE204679
:1021C00006210522FEF7F4FE03B0F0BD0004024034
:1021D00008B5FFF75BFFFFF72BFF0020FFF71AF8AA
:1021E0000120FEF75FFFFFF785FF00F055F8064B73
:1021F0004FF480521A834CF2503300BF013BFCD1A4
:10220000BDE80840FFF7F8BE000C02401D4B10B5BA
:102210004FF48044C3F8804000214FF40010FEF7D3
:10222000FFFF0020FEF7F6FF0020FEF73BFF2046F1
:102230000021FFF719F8144C14480021FFF7BDFBEB
:1022400013480021FFF7B9FB20460021FFF745FDA9
:102250002046183CFFF780FC20460021FFF73DFD9B
:1022600020460C4CFFF778FC20460021FFF782F94E
:102270002046FFF7D9F84FF480000021BDE8104058
:10228000FEF7F2BF00E100E070600240003800405D
:1022900000340040005800402DE9F74FDFF88481FA
:1022A000544DDFF88491544F544C4FF400100121E9
:1022B000FEF7B6FF40460021FFF70FFD4046FFF74F
:1022C0004BFC4F4B6B604F4BAB604023EB604FF4CC
:1022D0008063AB6100934FF4005300264FF0080C6D
:1022E0004FF4006B2B624FF4003A4FF4807340467A
:1022F0002946C5F810C0CDF804C06B622E606E612F
:10230000C5F81CB0EE622E636E63AE63C5F828A0FC
:10231000FFF7A8FC404686210122FFF755FD012268
:1023200048460221FFF7DAFB31463846FFF7D5FC75
:102330003846FFF711FC344BDDF804C0C4F810C078
:102340004FF0C06284E80C00304BA360009BA36197
:102350004FF40053236238464FF480732146636282
:10236000E6606661C4F81CB0E66226636663A66335
:10237000C4F828A0FFF776FC38469E210122FFF71B
:1023800023FD23484FF0010B0E23037080F801B0AA
:10239000867080F803B01F4EFEF714FA1E4B4FF400
:1023A0008042C3F88020304659465A46FFF796FBD4
:1023B0001A4B144A1A601A4B144A1A6040462946AE
:1023C000FFF750FC38462146FFF74CFC4046594683
:1023D000FFF783FC38465946FFF77FFC48465946CD
:1023E000FFF7EBFA3046594603B0BDE8F04FFFF770
:1023F000E4BA00BF9846002058600240D44600204E
:102400000C3800404C4600200C3400403C46002074
:10241000384600200034004000E100E0144700206E
:1024200010470020706002400038004008B5154891
:102430004FF0C051FFF795FC70B1134B1868134B68
:1024400019680830083100220423FDF7FBFF0D480E
:102450004FF0C051FFF7A0FC0A484FF0A051FFF722
:1024600080FC70B1084B1868084B012219680423DE
:10247000FDF7E8FF03484FF0A051BDE80840FFF723
:102480008BBC08BD58600240104700201447002054
:1024900010B5C0430A44914209D011F8013B054CE4
:1024A0004340DBB254F8233083EA1020F3E7C04303
:1024B00010BD00BF9C2B000843780B41DB0701D403
:1024C000032310E0012914D015D3022918D18388E1
:1024D00001339BB242F2CE329342838005D9B0F8E9
:1024E0000E3113B105230370704707234370202377
:1024F00005E0417001E0022343708378013B837063
:1025000083782BB901220270A0F80C31C37183715A
:102510007047037810B50A46044613B1012B03D067
:102520003FE0FFF7C9FF3CE0022902D1032303701B
:1025300037E0B0F80C311844C1791143A279C17168
:102540000132D2B2082AA27129D101339BB20020F4
:10255000B3F5827FA071A4F80C311DD14FF48072C5
:10256000E11DFFF795FF94F8083194F807211B044B
:1025700043EA026394F80A21134394F8092143EAD9
:10258000022398420CBF02200420B4F80E312070C0
:102590000133A4F80E3104E02344D87101E049006E
:1025A000C171207810BD00BF002103E00A4B5B58C9
:1025B0004350043109480A4B42189A42F6D3094A5B
:1025C00002E0002342F8043B074B9A42F9D3FDF79F
:1025D000EFFD00F0B3F87047E02F00080000002086
:1025E000700400207004002060470020FEE7704760
:1025F000704770472DE9F04F87B0814601910292F4
:10260000FEF772F9F320FEF703FA4F46019B029A98
:10261000C9EB0305C9EB070393423D443DD20026B5
:102620001F4B53F826309D4229D11E4CDFF880C045
:102630001D4B4FF010084FF480624FF4006B4FF4C5
:10264000805AACF81A80F000CDF814C002216283E1
:102650000492A3F81A800393A4F81AB0A4F81AA05D
:10266000FEF70DFADDF814C0039B049AACF818804D
:102670002283A3F81880A4F818B0A4F818A0013693
:102680000C2ECDD1094B5B68043B9D4205D82846F2
:1026900057F8041BFEF7D8FAB8E707B0BDE8F08F8B
:1026A000642B0008000002400010024018000020C7
:1026B000000C02402DE9F8431C4E102333830746DB
:1026C0008846FEF711F9F320FEF7A2F90025184C11
:1026D000184BD4F8A82053F825309A4203D1E800CB
:1026E0000221FEF7CCF901350C2DF0D13D46EB1B54
:1026F000434516D2D4F8A80055F8041BDFF83090F3
:10270000FEF7A2FA0C4AD4F8A83092680433934238
:10271000C4F8A830EBD3022389F80030012389F8EC
:10272000AC3010237383BDE8F88300BF0010024073
:1027300070040020642B00081800002070B546F2D9
:10274000A81400BF013CFCD1FDF70AFFFDF71AFFFA
:10275000A34B4FF480525A834FF400621A8347F61A
:10276000015101391BD09F4B1B6913F4806312D1B7
:102770009B48026912F002020FD19B4B1B6913F4B4
:1027800000530AD0036913F4007306D0974B1B69FA
:102790009E0640F119810024E3E71C46E1E743F679
:1027A00098239C42924E8E4A8CBF002301234FF403
:1027B0000061B37251835BB98E4B102119834FF4C2
:1027C00080631383FDF7B6FE06F1AD00FDF7DEFF73
:1027D000834B4FF480521A8340F6A17101391DD00A
:1027E000804B1B6913F4806314D17D48026912F099
:1027F000020211D17C4B1B6913F400530CD0036906
:1028000013F4007308D0794B1B699D0640F1DE80FC
:102810001446E3E70024E1E71C46DFE7B4F5FA6F6E
:102820006F4BF1804FF480628CBF00240124B4729E
:102830005A834FF480525A83B37A002B40F0A7801A
:102840006B4A82F8AC30D6F89030D6F88C206848C5
:102850009B1A5C0673D090F8AC30002B6FD1837A52
:10286000002B6CD1D0F88C30C218013303F07F03F9
:10287000C0F88C30117BAE30FFF74BFE02380328D6
:10288000E1D8DFE800F00246495101233589337071
:10289000594B05F03F0203EB0222013AA3F5867380
:1028A000534C13F8011B02F8011F04F2B5118B42BF
:1028B000F6D10135ADB2258115F03F051DD10323B9
:1028C00004F2C1104FF480412370FFF7F3FEFF23A1
:1028D00084F8AF30202384F8B0300423C4F890503B
:1028E00084F8AE50A4F8B250C4F88C5084F89C50D0
:1028F000C4F8A05084F8A430A5E7002384F8AE30D3
:10290000A4F8B230FF2384F8AF30202384F8B0302D
:1029100099E74FF4006201E04FF48052304B1A8384
:10292000012386F8AC308EE70123B372334BD6F81F
:10293000A8205868D968121AFFF75CFE83E796F85A
:10294000AC30002B3FF478AF294B02221A70254B94
:102950001A695105FBD41A695205FCD5254B102282
:102960005A83A3F540634FF48061598301F180419C
:1029700001F503314A834FF400625A834FF48052C9
:102980005A83FDF7FFFD0023F380B37254E7194B20
:1029900010225A83A3F540634FF48061598301F1FB
:1029A000804101F5033146F2A8144A834FF40062D6
:1029B0005A834FF480525A83FFF716FBFFF79EFAB3
:1029C00000BF013CFCD103E00134CAE6013405E755
:1029D000FDF794FE094BD868FDF7C4FE204670BD94
:1029E00000000240001802400008024000100240AF
:1029F00070040020000C0240310600201800002066
:102A000038B50B4D0B4C0C49224605F1AD0000F0DA
:102A100019F8224605F1AE00084900F013F805F157
:102A20000C0022460649BDE8384000F00BB800BF54
:102A30007004002000000020EF250008F1250008A8
:102A4000F325000808402DE90030A0E10100A0E1D5
:102A50000310A0E1010000EB0840BDE81EFF2FE1DC
:102A600001C0A0E108402DE90010A0E10230A0E182
:102A70000200A0E30C20A0E1010000EB0840BDE84B
:102A80001EFF2FE1D0C09FE5F0412DE900409CE5FD
:102A900048C194E500005CE353CF840204E09CE568
:102AA00048C184051F005EE30160A0E10050A0E181
:102AB0000280A0E10370A0E101108ED20F0000DAC5
:102AC00098309FE5000053E32100000A190EA0E3AF
:102AD00000F020E300C050E21D00000A0000A0E367
:102AE0000110A0E300E0A0E1483194E504008CE58A
:102AF00000308CE548C184E588018CE58C018CE5CB
:102B0000000055E30500001A0000A0E302E08EE299
:102B100004108CE50E618CE7F041BDE81EFF2FE14B
:102B20000100A0E30E318CE0888083E588419CE5BC
:102B3000102EA0E1020084E188018CE5087183E594
:102B4000020055E38C319C05022083018C218C0509
:102B5000ECFFFFEA0000E0E3EEFFFFEAA02F000831
:102B6000000000000000000800400008008000088D
:102B700000C000080000010800000208000004086E
:102B8000000006080000080800000A0800000C0801
:102B900000000E08004009000003000000000000D3
:102BA000963007772C610EEEBA51099919C46D075A
:102BB0008FF46A7035A563E9A395649E3288DB0EB5
:102BC000A4B8DC791EE9D5E088D9D2972B4CB60998
:102BD000BD7CB17E072DB8E7911DBF906410B71D75
:102BE000F220B06A4871B9F3DE41BE847DD4DA1AAE
:102BF000EBE4DD6D51B5D4F4C785D38356986C13DF
:102C0000C0A86B647AF962FDECC9658A4F5C011457
:102C1000D96C0663633D0FFAF50D088DC8206E3B35
:102C20005E10694CE44160D5727167A2D1E4033C47
:102C300047D4044BFD850DD26BB50AA5FAA8B5356E
:102C40006C98B242D6C9BBDB40F9BCACE36CD8325D
:102C5000755CDF45CF0DD6DC593DD1ABAC30D92604
:102C60003A00DE518051D7C81661D0BFB5F4B42107
:102C700023C4B3569995BACF0FA5BDB89EB8022804
:102C80000888055FB2D90CC624E90BB1877C6F2F89
:102C9000114C6858AB1D61C13D2D66B69041DC7684
:102CA0000671DB01BC20D2982A10D5EF8985B1715D
:102CB0001FB5B606A5E4BF9F33D4B8E8A2C907780C
:102CC00034F9000F8EA8099618980EE1BB0D6A7FA3
:102CD0002D3D6D08976C6491015C63E6F4516B6B5C
:102CE00062616C1CD83065854E0062F2ED95066C11
:102CF0007BA5011BC1F4088257C40FF5C6D9B06586
:102D000050E9B712EAB8BE8B7C88B9FCDF1DDD62E2
:102D1000492DDA15F37CD38C654CD4FB5861B24D48
:102D2000CE51B53A7400BCA3E230BBD441A5DF4A12
:102D3000D795D83D6DC4D1A4FBF4D6D36AE96943D5
:102D4000FCD96E34468867ADD0B860DA732D044480
:102D5000E51D03335F4C0AAAC97C0DDD3C710550AB
:102D6000AA41022710100BBE86200CC925B5685752
:102D7000B3856F2009D466B99FE461CE0EF9DE5E9B
:102D800098C9D9292298D0B0B4A8D7C7173DB3594C
:102D9000810DB42E3B5CBDB7AD6CBAC02083B8EDDD
:102DA000B6B3BF9A0CE2B6039AD2B1743947D5EAEA
:102DB000AF77D29D1526DB048316DC73120B63E319
:102DC000843B64943E6A6D0DA85A6A7A0BCF0EE478
:102DD0009DFF099327AE000AB19E077D44930FF033
:102DE000D2A3088768F2011EFEC206695D5762F72A
:102DF000CB67658071366C19E7066B6E761BD4FE67
:102E0000E02BD3895A7ADA10CC4ADD676FDFB9F943
:102E1000F9EFBE8E43BEB717D58EB060E8A3D6D605
:102E20007E93D1A1C4C2D83852F2DF4FF167BBD133
:102E30006757BCA6DD06B53F4B36B248DA2B0DD836
:102E40004C1B0AAFF64A0336607A0441C3EF60DFD9
:102E500055DF67A8EF8E6E3179BE69468CB361CBC2
:102E60001A8366BCA0D26F2536E2685295770CCCE7
:102E700003470BBBB91602222F260555BE3BBAC528
:102E8000280BBDB2925AB42B046AB35CA7FFD7C219
:102E900031CFD0B58B9ED92C1DAEDE5BB0C2649B0A
:102EA00026F263EC9CA36A750A936D02A906099C3D
:102EB0003F360EEB8567077213570005824ABF95B0
:102EC000147AB8E2AE2BB17B381BB60C9B8ED29233
:102ED0000DBED5E5B7EFDC7C21DFDB0BD4D2D3868A
:102EE00042E2D4F1F8B3DD686E83DA1FCD16BE81FD
:102EF0005B26B9F6E177B06F7747B718E65A0888CE
:102F0000706A0FFFCA3B06665C0B0111FF9E658F5E
:102F100069AE62F8D3FF6B6145CF6C1678E20AA008
:102F2000EED20DD75483044EC2B30339612667A78E
:102F3000F71660D04D476949DB776E3E4A6AD1AEDD
:102F4000DC5AD6D9660BDF40F03BD83753AEBCA96C
:102F5000C59EBBDE7FCFB247E9FFB5301CF2BDBDD9
:102F60008AC2BACA3093B353A6A3B4240536D0BAE2
:102F70009306D7CD2957DE54BF67D9232E7A66B37F
:102F8000B84A61C4021B685D942B6F2A37BE0BB42C
:102F9000A18E0CC31BDF055A8DEF022D43000000EC
:102FA000400000200DC0A0E1F8DF2DE904B04CE2A4
:102FB00028D04BE2F06F9DE81EFF2FE10DC0A0E18D
:102FC000F8DF2DE904B04CE228D04BE2F06F9DE829
:102FD0001EFF2FE1000000000000000000000000C4
:102FE00000000000007A030A00000000000000005A
:102FF0000102030406070809401F0000000008083A
:10300000FCFF0F080080000800000000010203041C
:10301000010203040607080900C0120000000000B6
:10302000000000002C03002094030020FC0300207B
:103030000000000000000000000000000000000090
:103040000000000000000000000000000000000080
:10305000000000009C2F000800000000000000009D
:103060000000000000000000000000000000000060
:103070000000000000000000000000000000000050
:103080000000000000000000000000000000000040
:103090000000000000000000000000000000000030
:1030A0000000000000000000000000000000000020
:1030B0000000000000000000000000000000000010
:1030C00000000000000000000100000000000000FF
:1030D0000E33CDAB34126DE6ECDE05000B000000C4
:1030E00000000000000000000000000000000000E0
:1030F00000000000000000000000000000000000D0
:1031000000000000000000000000000000000000BF
:1031100000000000000000000000000000000000AF
:04000005080025A921
:00000001FF
