:020000040800F2
:10800000000002204DF70008EDDF0008F1DF000856
:1080100005E0000809E000080DE00008000000008D
:1080200000000000000000000000000011E0000857
:1080300015E000080000000019E0000891F70008B2
:1080400091F7000891F7000891F7000891F70008F0
:1080500091F7000891F7000891F7000891F70008E0
:1080600091F7000891F7000891F7000891F70008D0
:1080700091F7000809D2000831D10008B5D10008F5
:1080800095D2000891F7000891F7000891F70008D1
:1080900091F7000891F7000891F7000891F70008A0
:1080A00009F7000891F7000891F7000891F7000818
:1080B00075F6000891F700083DC6000891F7000822
:1080C00091F7000891F7000891F7000891F7000870
:1080D00091F7000891F7000891F7000891F7000860
:1080E000CDF5000891F7000891F7000891F7000816
:1080F00091F7000891F7000891F7000891F7000840
:1081000091F7000891F7000891F7000891F700082F
:1081100091F7000891F7000891F7000891F700081F
:1081200091F7000891F7000891F7000891F700080F
:1081300091F7000891F7000891F7000891F70008FF
:1081400091F7000891F7000891F7000891F70008EF
:1081500091F7000891F7000891F7000891F70008DF
:1081600091F7000891F7000891F7000891F70008CF
:1081700091F7000891F7000891F7000891F70008BF
:1081800091F7000891F7000891F7000891F70008AF
:1081900091F7000891F7000891F7000891F700089F
:1081A00091F7000891F7000891F70008000000001F
:1081B00040F0BF6040F40030014BD860704700BF12
:1081C00000ED00E0C3785BB903785A0903F01F03A0
:1081D0000121994002F12003134A42F8231070470D
:1081E000124BDA68D243C2F302224378C2F104018F
:1081F000C9B28B40D9B20F231341827813400B438D
:108200001B01DBB2027802F1604202F5614282F8A2
:1082100000330378590903F01F03012202FA03F324
:10822000014A42F82130704700E100E000ED00E033
:1082300021F0604121F07F010843014B98607047B5
:1082400000ED00E0044A136919B923EA0000106147
:10825000704718431061704700ED00E0044A13684E
:1082600004280CBF43F0040323F004031360704799
:1082700010E000E008B54FF48070012102F0CEF864
:108280004FF480700021BDE8084002F0C7B800BF7D
:1082900010B4436823F0407222F480720B681343D9
:1082A0000A7943EA022343608468CA680B691A4367
:1082B0008B681A43094B234013434A7943EA42032C
:1082C0008360C36A23F470020B7D013BDBB242EA98
:1082D0000353C3625DF8044B704700BFFDF7FFC056
:1082E00000230360037143718360C3600361012352
:1082F0000375704710B4084C6268084B134090E84F
:108300000600114382681143C2680A431343636045
:108310005DF8044B704700BF00230140E030FCFFD4
:108320000023036043608360C3607047836819B9AA
:1083300023F001038360704743F0010383607047BB
:10834000436823F4400323F40073194341607047EA
:1083500041628262704700BF436823F01F031943E4
:1083600041607047054A536818B923F4000353600D
:10837000704743F400035360704700BF002301407F
:10838000054A536818B923F480035360704743F4D7
:1083900080035360704700BF0023014070B4092977
:1083A0001CD9C668A1F10A0404EB44040725A540C2
:1083B00026EA0505A3402B43C360062A1AD90C2AD6
:1083C00025D9C46A0D3A02EB82021F23934024EAA6
:1083D000030391401943C16270BC7047056901EB0A
:1083E00041060724B44025EA0404B3402343036153
:1083F000062AE4D8446B013A02EB82021F23934021
:1084000024EA030391401943416370BC7047046B35
:10841000073A02EB82021F23934024EA03039140B0
:108420001943016370BC7047836843F080438360E5
:10843000704700BF8068C0F380707047836819B9C7
:1084400023F480638360704743F4806383607047E4
:10845000836819B923F002038360704743F0020375
:1084600083607047436823F46043013943EA413332
:1084700043607047436819B923F400634360704751
:1084800043F4006343607047C06C80B2704700BF24
:10849000014B1868704700BF08230140836819B971
:1084A00023F480738360704743F480738360704764
:1084B000836819B923F400738360704743F4007331
:1084C00083607047054A536818B923F4005353601A
:1084D000704743F400535360704700BF00230140CE
:1084E00070B409291AD8056901EB41060724B44084
:1084F00025EA0404B34023430361836B0232C3F3D0
:108500000154121BD2B202EB82021F24944023EAD0
:10851000040391401943816370BC7047C668A1F1A0
:108520000A0404EB44040725A54026EA0505A340F8
:108530002B43C360E1E700BF836B23F44013013991
:1085400043EA01538363704782B000230193019093
:10855000019B19440191019B1A6002B0704700BF52
:10856000836823F47023194381607047836823F480
:108570004013194381607047836843F4800383602C
:10858000704700BF8068C0F380507047436819B9D6
:1085900023F480634360704743F480634360704713
:1085A000436819B923F480534360704743F4805300
:1085B0004360704782B0002301930190019B2833F0
:1085C00019440191019B186880B202B0704700BF46
:1085D000C9B201238B4022B9426822EA03034360F7
:1085E0007047426813434360704700BF03681942F5
:1085F00014BF012000207047C9430160704700BFCD
:108600004268006810EA112006D0C9B201238B40ED
:10861000134214BF01200020704700BF6FEA1121F0
:108620000160704708B54FF00050012101F0EAFEEB
:108630004FF000500021BDE8084001F0E3BE00BF4C
:1086400030B4094D2A6840F6FE73834022EA0304E1
:1086500091E80C001A438B681343CA6813438340A4
:1086600023432B6030BC704700740040002303603C
:1086700043608360C360704739B907490A680123C2
:10868000834022EA03030B60704703490A68012311
:10869000834013430B6070470074004041B90849A0
:1086A0004A6800090123834022EA03034B607047B4
:1086B00003494A6800090123834013434B60704714
:1086C00000740040054A536818B923F0030353604F
:1086D000704743F003035360704700BF00740040CD
:1086E00032B9064A1368814023EA010111607047DC
:1086F000024A1368814019431160704700740040BA
:1087000082B000230193054B0193019B0833184469
:108710000190019B196002B0704700BF00740040D7
:1087200082B000230193054B0193019B143318443D
:108730000190019B196002B0704700BF00740040B7
:1087400008280CBF42EA012242EA0142014BC25012
:10875000704700BF2074004082B000230193064B95
:108760000193019B2C3303EB90000190019B18684F
:1087700080B202B0704700BF0074004041B90849A0
:108780000A684FF48053834022EA03030B6070476A
:1087900003490A684FF48053834013430B607047CA
:1087A0000074004032B9064A1368814023EA01018F
:1087B00011607047024A1368814019431160704785
:1087C00000740040034B5B6B8140194214BF0120D1
:1087D00000207047007400408140014B596370478E
:1087E00000740040054B1A688140586B084003D064
:1087F000114214BF01200020704700BF00740040E8
:108800008140014B5963704700740040036823F0B6
:10881000010303600023036043608360C36003615E
:10882000212343612A4B984236D02A4B984237D0B5
:10883000294B984239D0294B98423BD0284B98423B
:108840003DD0284B98423ED0274B98421BD0274B17
:1088500098421CD0264B98421ED0264B98421FD0DF
:10886000254B984221D0254B984223D0244B984247
:1088700025D0244B984226D0234B984203D0234B3B
:10888000984204D07047224A43F8942C70474FF026
:108890003D5243F8AC2CF5E73D2243F8082C7047D5
:1088A0004FF4746243F8202C70474FF4741243F86D
:1088B000382C70474FF0746243F8502C7047154ABB
:1088C00043F8642C7047144A43F87C2C704700BF6F
:1088D0001060024028600240406002405860024040
:1088E0007060024088600240A0600240B8600240B0
:1088F0001064024028640240406402405864024010
:108900007064024088640240A0640240B86402407F
:1089100000003D203D000020400F002010B4026800
:10892000134B1340CC680A6814434A6914438A699C
:108930001443CA6914430A6A14434A6A14438A6A8C
:1089400014434A6B14438A6B224313430360436905
:1089500023F007020C6BCB6A2343134343610B697B
:1089600043604B6883608B68C3605DF8044B70475D
:108970003F801CF00023036043608360C360036199
:1089800043618361C361036243628362C3620363C1
:1089900043638363704700BF036819B923F0010381
:1089A0000360704743F0010303607047036819B91F
:1089B00023F400430360704743F4004303607047AF
:1089C000036819B923F020030360704743F02003C4
:1089D0000360704741607047406880B2704700BFD5
:1089E000036822B923F4002303600161704743F454
:1089F0000023036001617047036819B923F48023E1
:108A00000360704743F48023036070470AB9C16074
:108A100070470161704700BF0068C0F3C0407047F5
:108A2000006800F001007047406900F038007047AE
:108A300010B40B4A0B4B0C4CA04294BF1846104686
:108A40008B004CBF4368036821F0F02121F08211B4
:108A5000194214BF012000205DF8044B704700BF8D
:108A600000640240006002400F64024010B4094AF2
:108A7000094B0A4CA04294BF1846104611F0005F03
:108A800021F0F02121F0821114BFC16081605DF8F6
:108A9000044B704700640240006002400F640240D3
:108AA0000B060CD54369AAB143F0800343618029CA
:108AB00016D0036801F01E01194301607047802938
:108AC00007D0002AF5D1036801F01E0123EA010155
:108AD0000160704723F0800343618029F3D1704720
:108AE000704700BF10B4114A114B124CA04294BF02
:108AF0001C46144621F0F02323F0C31292B1006803
:108B000000F01E0000EAD12289004CBF6068206896
:108B100023F08213184002D0101C18BF01205DF80A
:108B2000044B7047406900F08002EDE700640240AA
:108B3000006002400F64024010B4094A094B0A4C1D
:108B4000A04294BF1846104611F0005F21F0F021BA
:108B500021F0821114BFC16081605DF8044B704741
:108B600000640240006002400F640240044B002297
:108B70001A605A609A60DA60024A5A61704700BF10
:108B8000003C0140FFFF7F0083792BB330B41C4BC6
:108B90001C680168CD432C401C605A682A405A600A
:108BA000027902F1804202F59E321468214311607D
:108BB0009C680168CD432C409C60DA682A40DA60EA
:108BC0004279102A13D002F1804303F59E331A68CC
:108BD0001143196030BC7047037903F1804303F5FA
:108BE0009E331A68016822EA01021A6070479A6887
:108BF0000A439A60DA681143D96030BC704700BFFD
:108C0000003C01400023036003710C224271837118
:108C1000704700BF024A136918431061704700BFD4
:108C2000003C0140034B5B69184214BF0120002047
:108C3000704700BF003C0140014B5861704700BFC6
:108C4000003C0140034B5B69184214BF0120002027
:108C5000704700BF003C0140014B5861704700BFA6
:108C6000003C0140C0B2014B18707047003C02400C
:108C7000054A136818B923F480731360704743F4EE
:108C800080731360704700BF003C0240054A1368C0
:108C900018B923F400731360704743F40073136032
:108CA000704700BF003C0240054A136818B923F41E
:108CB00080631360704743F480631360704700BFA4
:108CC000003C0240024A136843F40063136070479B
:108CD000003C0240024A136843F48053136070471B
:108CE000003C0240044B1A69002A04DA034A5A6025
:108CF00002F188325A607047003C02402301674508
:108D0000024A136943F0004313617047003C02407C
:108D1000044B5A69D20704D5034A9A6002F14432DF
:108D20009A607047003C02403B2A1908024A536986
:108D300043F0010353617047003C0240034A13783B
:108D400003F07F0318431070704700BF173C0240C8
:108D5000044B1A7802F0EF021A701A781043187058
:108D6000704700BF143C0240044B1A7802F0F30233
:108D70001A701A7810431870704700BF143C0240F4
:108D8000024B5869C0F34710704700BF003C0240D7
:108D9000014B188880B27047163C0240014B18887E
:108DA00080B270471A3C0240014B188880B270476D
:108DB000163C0240014B188880B270471A3C0240B2
:108DC000024B1878AA3818BF01207047153C0240A2
:108DD000024B187800F00C00704700BF143C0240B2
:108DE000044A136919B923EA000010617047184357
:108DF00010617047003C0240034BDB68184214BF0F
:108E000001200020704700BF003C0240014BD860A9
:108E1000704700BF003C02400E4BDA68D20309D411
:108E2000DA68D10601D506207047DA68D20503D585
:108E30000220704701207047DA6812F0EF0F01D06E
:108E400007207047DB6813F0020F14BF08200920C9
:108E5000704700BF003C024000B583B009238DF885
:108E60000730FFF7D9FF8DF807009DF80730012B79
:108E7000F7D09DF8070003B05DF804FB70B5064617
:108E800059B301292FD002290CBF4FF400744FF4BD
:108E90004074FFF7E1FF092824D1144D2B6923F416
:108EA00040732B612969214329612B6923F0F80361
:108EB0002B612B6943F002031E432E612B6943F49F
:108EC00080332B61FFF7C8FF2B6923F002032B616E
:108ED0002B6923F0F8032B6170BD0C46FFF7BCFF34
:108EE0000928DAD070BD4FF48074F7E7003C0240E7
:108EF00038B50446FFF7B0FF3CB1012C08D0022C76
:108F00000CBF4FF400744FF44074092804D038BDEE
:108F10004FF480740928FAD10D4D2B6923F4407366
:108F20002B612B691C432C612B6943F4004343F0F4
:108F300004032B612B6943F480332B61FFF78CFF13
:108F40002B6923F4004323F004032B6138BD00BFD9
:108F5000003C024038B50446FFF77EFF3CB1012CCF
:108F600008D0022C0CBF4FF400744FF44074092851
:108F700004D038BD4FF480740928FAD10B4D2B6909
:108F800023F440732B612B691C432C612B6943F044
:108F900004032B612B6943F480332B61FFF75CFFE3
:108FA0002B6923F004032B6138BD00BF003C024055
:108FB00038B50446FFF750FF3CB1012C08D0022C15
:108FC0000CBF4FF400744FF44074092804D038BD2E
:108FD0004FF480740928FAD10B4D2B6923F44073A8
:108FE0002B612B691C432C612B6943F400432B61DB
:108FF0002B6943F480332B61FFF72EFF2B6923F499
:1090000000432B6138BD00BF003C0240F8B5054667
:1090100016461F46FFF720FF092800D0F8BD0B4C6D
:10902000236923F440732361236943F4407323616C
:10903000236943F001032361C5E90067FFF70CFFD3
:10904000236923F001032361F8BD00BF003C024007
:1090500070B505460E46FFF7FFFE092800D070BD2B
:109060000A4C236923F440732361236943F400739A
:109070002361236943F0010323612E60FFF7ECFEB7
:10908000236923F00103236170BD00BF003C02404F
:1090900070B505460E46FFF7DFFE092800D070BD0B
:1090A0000A4C236923F440732361236943F48073DA
:1090B0002361236943F0010323612E80FFF7CCFE77
:1090C000236923F00103236170BD00BF003C02400F
:1090D00070B505460E46FFF7BFFE092800D070BDEB
:1090E000094C236923F440732361236923612369B5
:1090F00043F0010323612E70FFF7AEFE236923F0D6
:109100000103236170BD00BF003C024038B5054635
:109110000C46FFF7A1FE092800D038BD054B188882
:109120001CB9284380B2188038BD80B220EA0500FF
:10913000188038BD163C024038B505460C46FFF78E
:109140008BFE092800D038BD054B18881CB9284370
:1091500080B2188038BD80B220EA0500188038BD82
:109160001A3C024038B505460C46FFF775FE092843
:1091700000D038BD054B188824B980B220EA05001C
:10918000188038BD284380B2188038BD163C024094
:1091900038B505460C46FFF75FFE092800D038BDFC
:1091A000054B188824B980B220EA0500188038BD24
:1091B000284380B2188038BD1A3C024010B50446DE
:1091C000FFF74AFE092804BF014B1C7010BD00BF09
:1091D000153C024070B506460C461546FFF73CFEAE
:1091E000092807D1044B197801F01F0131432943A5
:1091F0002143197070BD00BF143C0240034A13782C
:1092000043F002031370FFF727BE00BF143C024077
:1092100070B143F2D2024FF0204343F82020800087
:1092200000F120406FF070434360C0F80431704794
:1092300043F2DB024FF020431A60F0E7F0B4076816
:109240008668856A416B436846EA0302C3681A432D
:1092500003691A4343691A4383691A43C3691A436A
:10926000036A1A43436A13432B43C26A1A43036BCC
:1092700013430B43BC0004F120442360082E1FD08D
:10928000B1F5801F23D0816B0E698A690B681A4380
:109290004B6842EA03128B6842EA0322CB6842EA37
:1092A00003424B6942EA036343EA06536360B5F540
:1092B000804F22D06FF07043C4F80431F0BC704787
:1092C000236843F040032360B1F5801FDBD1002FFA
:1092D000D9D04FF020435A68196841F480111960C1
:1092E000196841F480711960816B0E69771E22F450
:1092F000700242EA07525A60C7E7C26B916913686D
:109300000B43516843EA0113916843EA0123116951
:1093100043EA0153526943EA0263C4F80431F0BCE2
:10932000704700BF10B400230360022242608360D4
:109330001022C2600361C36243618361C3614FF461
:10934000805202624FF400524262836203634363BD
:10935000816B0F220A604A60FF248C60CA600A6138
:109360004A618B61C16B0A604A608C60CA600A61A5
:109370004A618B615DF8044B704700BF800000F1CB
:10938000204021B90268044B134003607047036812
:1093900043F0010303607047FEFF0F0010280CBF6D
:1093A000054B064B18221A6040225A604FF0FC32DF
:1093B0009A60DA60704700BF600000A0800000A0E3
:1093C00030B442688368134343F00803C2681A4309
:1093D00003691343426943EA4223826943EA423202
:1093E000C1694C688B681B0443EA04230C6823435F
:1093F000CD6843EA0565046A6168A3681B0443EA13
:10940000012321680B43E16843EA016301681029E5
:109410000CBF034903490A608D60CB6030BC7047C4
:10942000600000A0800000A01022002380E80C0053
:109430008260C360036143618361C269FC2313607E
:1094400053609360D360026A136053609360D3608B
:10945000704700BF41B110280CBF084A084A136882
:1094600043F004031360704710280CBF034A044AFA
:109470001168044B0B401360704700BF600000A0F0
:10948000800000A0FBFF0F0041B110280CBF084A6C
:10949000084A136843F040031360704710280CBF5C
:1094A000034A044A1168044B0B401360704700BF25
:1094B000600000A0800000A0BFFF0F0010280CBFBC
:1094C000014B024B58697047600000A0800000A06B
:1094D000054B18221A6000225A604FF0FC329A6045
:1094E000DA601A61704700BFA00000A010B40368E2
:1094F00043F01003426843EA4223826843EA42335E
:1095000014490B60C4686368A268120442EA03222B
:1095100023681343E26843EA02638B60046963686B
:10952000A268120442EA032223681343E26843EA72
:109530000263CB60406943688268120442EA0322F6
:1095400003681343C26843EA02630B615DF8044B8E
:10955000704700BFA00000A0002303604360836049
:10956000C268FC23136053609360D3600269136088
:1095700053609360D3604269136053609360D3601B
:10958000704700BF054A20B91168054B0B401360B6
:109590007047136843F0040313607047A00000A0F5
:1095A000FBFF0F00800000F120404FF43472C0F840
:1095B00040216FF07042C0F84821034B00221A612D
:1095C0005A619A61704700BF400100A070B4C4693D
:1095D000056A416A826843681A43C3681A4303698B
:1095E0001A4343691A438369134323432B430B43B1
:1095F0000268FAB9204E3360846A60680138A56851
:10960000013D2D0245EA00102368013B0343E16858
:10961000013943EA01302269013A40EA02416369B3
:10962000013B41EA0352A369013B42EA0363B36091
:1096300070BC70472C4321430F4C216044F822300A
:10964000856A69680139A8680138000240EA011199
:109650002B68013B19432B69013B41EA03436969CC
:10966000481EE9680139090341EA0051A16002324C
:1096700044F8223070BC7047400100A00022026014
:10968000426082601023C3604021016180214161FA
:109690004FF400718161C26102624262826A1360AA
:1096A00053609360D360136153619361704700BF4F
:1096B00090E80C001343C26843EA42228368013BEE
:1096C00042EA4313014A1361704700BF400100A002
:1096D000054B20B1986900F0180080087047986920
:1096E00000F00600704700BF400100A0024A536925
:1096F00043EA400050617047400100A0024A1369EC
:1097000043EA401010617047400100A0800000F162
:10971000204039B9D0F8402147F6FF531340C0F834
:1097200040317047D0F8403143F40073C0F8403105
:10973000704700BF62B110281ED0B0F5807F2BD0DB
:10974000B0F5805F1DD01A4A5369194351617047C3
:1097500010280BD0B0F5807F18D0B0F5805F20D0F6
:10976000134A536923EA010151617047114A536852
:1097700023EA0101516070470E4A53681943516052
:1097800070470D4A53681943516070470B4A53683C
:1097900023EA010151607047084A53681943516038
:1097A0007047054A536823EA01015160704700BFC2
:1097B000400100A0600000A0A00000A0800000A068
:1097C000102810D0B0F5807F10D0B0F5805F07BFB3
:1097D000084B5B68084B9B6903EA0100081AB0FA62
:1097E00080F040097047054B5B68F5E7044B5B6808
:1097F000F2E700BFA00000A0400100A0600000A0B0
:10980000800000A010280BD0B0F5807F0ED0B0F5FE
:10981000805F11D00B4A536923EA010151617047FF
:10982000094A536823EA010151607047074A5368A7
:1098300023EA010151607047054A536823EA010198
:1098400051607047400100A0600000A0800000A0AF
:10985000A00000A010B410281CD0B0F5807F12D05A
:10986000B0F5805F1DD0104A5369946901EA030284
:1098700001280CD804F0010010B1101C18BF012001
:109880005DF8044B7047094B5B6803EA010203EA89
:10989000D100F1E7064B5B6801EA030203EAD1005D
:1098A000EAE7044B5B68F0E7400100A0800000A0FD
:1098B000600000A0A00000A010280BD0B0F5807FB1
:1098C0000ED0B0F5805F11D00B4A536943F001030D
:1098D00053617047094A536823EAD10151607047C8
:1098E000074A536823EAD10151607047054A53681B
:1098F00023EAD10151607047400100A0600000A040
:10990000800000A0A00000A008B54B4B98422AD0D0
:109910004A4B984231D04A4B984238D0494B9842F2
:109920003FD0494B984246D0484B98424DD0484B87
:10993000984254D0474B98425BD0474B984262D0F4
:10994000464B98426BD0464B984200D008BD4FF42E
:109950008060012100F032FD4FF480600021BDE8FD
:10996000084000F02BBD0120014600F027FD01203A
:109970000021BDE8084000F021BD0220012100F0D7
:109980001DFD02200021BDE8084000F017BD0420A5
:10999000012100F013FD04200021BDE8084000F083
:1099A0000DBD0820012100F009FD08200021BDE8BF
:1099B000084000F003BD1020012100F0FFFC102042
:1099C0000021BDE8084000F0F9BC2020012100F092
:1099D000F5FC20200021BDE8084000F0EFBC40204D
:1099E000012100F0EBFC40200021BDE8084000F020
:1099F000E5BC8020012100F0E1FC80200021BDE8D1
:109A0000084000F0DBBC4FF48070012100F0D6FC70
:109A10004FF480700021BDE8084000F0CFBC4FF447
:109A20000070012100F0CAFC4FF400700021BDE875
:109A3000084000F0C3BC00BF000002400004024028
:109A400000080240000C02400010024000140240D6
:109A500000180240001C0240002002400024024086
:109A6000002802402DE9F043D1F800E0002213461F
:109A700001274FF0030C03E001330232102B23D0F7
:109A800007FA03F404EA0E05A542F5D106680CFABC
:109A900002F4E44326400660D0F800800E7906FA0E
:109AA00002F949EA0808C0F80080013E012E0DD9EC
:109AB000C5682C40C460C568CC7994402C43C46010
:109AC00001330232102BDBD1BDE8F08386682640DB
:109AD0008660866891F8058008FA02F848EA06066A
:109AE0008660466826EA0505456046688D799D4092
:109AF000ADB235434560DBE74FF6FF7303600023EB
:109B0000037143718371C371704700BF82B04FF41A
:109B100080330193019B0B430193019BC361C1619E
:109B2000019BC361C3690193C369019302B070478C
:109B30000369194214BF012000207047006980B2F8
:109B4000704700BF4369194214BF012000207047CD
:109B5000406980B2704700BF0183704741837047FE
:109B60000AB9418370470183704700BF4161704764
:109B7000436959404161704710B401F007039B00ED
:109B8000C90800EB8100046A0F21994024EA010111
:109B90000162016A9A40114301625DF8044B70470B
:109BA00008B5174B984212D0164B98421BD0164B53
:109BB000984200D008BD4FF40000012100F022FCC3
:109BC0004FF400000021BDE8084000F01BBC4FF43A
:109BD0000010012100F016FC4FF400100021BDE838
:109BE000084000F00FBC4FF48000012100F00AFC97
:109BF0004FF480000021BDE8084000F003BC00BF26
:109C00000054004000580040005C0040F0B585B0B2
:109C100004460D46868826F03F063604360C684614
:109C200000F0DAFA029B2E4AA2FB0312970CB8B29C
:109C30000643A680218821F001010904090C218036
:109C40002A6828498A4222D85200B3FBF2F39BB219
:109C5000032B98BF042301302084A38323889BB265
:109C600043F001032380238823F4816323F002035C
:109C70001B041B0C6989AA880A4313439BB22380E7
:109C80002A89AB8913439BB2238105B0F0BDE888D4
:109C90004BF6FF7188421DD002EB820202EB82027A
:109CA000B3FBF2F39BB243F48043C3F30B020AB954
:109CB00043F0010343F400434FF4967202FB07F2B2
:109CC000094981FB0201D217C2EBA112013292B203
:109CD0002284C2E702EB4200B3FBF0F39BB2E4E75D
:109CE00083DE1B43A0860100D34D621041F288330E
:109CF0000360002383804BF6FF72C280038143819F
:109D00004FF4804383817047038829B923F001030E
:109D10001B041B0C038070479BB243F001030380BC
:109D2000704700BF838C21B99BB243F0100383843A
:109D3000704723F010031B041B0C8384704700BF83
:109D4000838C9BB201F00F0123F00F030B4383843C
:109D5000704700BF038829B923F480731B041B0CD0
:109D6000038070479BB243F480730380704700BF49
:109D7000038829B923F400731B041B0C038070476C
:109D80009BB243F400730380704700BF22B901F017
:109D9000FE0189B20182704741F0010189B201825E
:109DA000704700BF038829B923F480631B041B0C90
:109DB000038070479BB243F480630380704700BF09
:109DC00083899BB201F0FE0123F0FE030B438381E4
:109DD000704700BF838929B923F001031B041B0CC2
:109DE000838170479BB243F001038381704700BFBA
:109DF000038829B923F040031B041B0C0380704720
:109E00009BB243F040030380704700BF038819B939
:109E1000C3F30E03038070476FEA43436FEA534373
:109E20009BB20380704700BF038829B123F08003F1
:109E30001B041B0C038070479BB243F0800303801C
:109E4000704700BF838BB1F5804F05D023F480436A
:109E50001B041B0C838370479BB243F480438383B2
:109E6000704700BF0388B1F5006F05D023F400638D
:109E70001B041B0C038070479BB243F400630380F8
:109E8000704700BF0388B1F5005F05D023F400538D
:109E90001B041B0C038070479BB243F400530380E8
:109EA000704700BF038829B923F010031B041B0C63
:109EB000038070479BB243F010030380704700BFDC
:109EC00001827047008AC0B2704700BF038829B979
:109ED00023F480531B041B0C038070479BB243F494
:109EE00080530380704700BF0388B1F5006F05D031
:109EF00023F400631B041B0C038070479BB243F4E4
:109F000000630380704700BF038829B923F0200352
:109F10001B041B0C038070479BB243F0200303809B
:109F2000704700BF008BC0F307207047838829B9B2
:109F300023F400631B041B0C838070479BB243F423
:109F400000638380704700BF838829B923F480535E
:109F50001B041B0C838070479BB243F480538380A7
:109F6000704700BF82B0002301930190019B194408
:109F70000191019B188880B202B0704783889BB220
:109F80001AB923EA01018180704719438180704723
:109F900010B4838A9AB2038B21F07F4442EA0343D0
:109FA00004EA0300081AB0FA80F040095DF8044B97
:109FB000704700BF838A9BB2008B43EA004020F0C9
:109FC0007F40704782B000230193009300900B0FF5
:109FD000019321F07F41019B53B1009B1433009307
:109FE000009B1B68194214BF0120002002B070477B
:109FF000090C009B18330093F2E700BFC94389B2F4
:10A000008182704783889BB2808A80B2084006D0E4
:10A0100001F0E06113EA114314BF012000207047F2
:10A02000C94389B2818270470E4B1A6842F001021F
:10A030001A60002199601A6822F0A85222F41022B6
:10A040001A60094A5A60094AC3F8842002F1806202
:10A05000C3F888201A6822F480221A60D960C3F8F5
:10A060008C1070470038024010300024003000206F
:10A07000024B00221A701870704700BF023802406D
:10A08000034A136823F0F80343EAC00010607047E6
:10A0900000380240014B1860704700BF0000474283
:10A0A000064B00221A701A70012805D0042802D12C
:10A0B00005221A7070477047187070477038024058
:10A0C000014B1860704700BF800E474210B4019CDE
:10A0D00040EA0460014341EA82125B08013B42EA24
:10A0E0000340024B58605DF8044B70470038024053
:10A0F000014B1860704700BF60004742120742EAF8
:10A10000016141EA8010024BC3F88400704700BF30
:10A1100000380240014B1860704700BF680047429A
:10A12000120742EA016141EA8010024BC3F888003D
:10A13000704700BF00380240014B1860704700BFF5
:10A1400070004742014B1860704700BF4C00474207
:10A15000034A936823F0EC63194308439060704707
:10A1600000380240034A936823F0784319430843B8
:10A170009060704700380240034A936823F003035D
:10A1800018439060704700BF00380240024B986847
:10A1900000F00C00704700BF00380240034A93688B
:10A1A00023F0F00318439060704700BF003802406E
:10A1B000034A936823F4E05318439060704700BF4C
:10A1C00000380240034A936823F4604343EAC00026
:10A1D000906070470038024010B41F498B6803F04C
:10A1E0000C03042B1BD0082B1CD01C4B03601A4AF9
:10A1F0009468C4F303141A490C5DE3404360946807
:10A20000C4F382240C5D23FA04F484609268C2F3E0
:10A2100042328A5CD340C3605DF8044B7047114BF7
:10A220000360E4E74C684B6803F03F0214F4800FCE
:10A230004C68C4F3881414BF0A490849B1FBF2F30F
:10A2400003FB04F2044B5B68C3F3014301335B007F
:10A25000B2FBF3F30360CAE7003802400024F400C5
:10A260000000002000127A0000F44073B3F5407F34
:10A2700009D108498B6823F4F81320F0704222F4C6
:10A28000407213438B60034A136FC0F30B001843F3
:10A290001067704700380240014B1860704700BFDC
:10A2A0003C0E4742014B1860704700BF400E4742CA
:10A2B000014B1860704700BF5C014742044AD2F866
:10A2C0008C3023F01F0301380343C2F88C307047F1
:10A2D00000380240054AD2F88C3023F4F853013894
:10A2E00043EA0023C2F88C30704700BF00380240B8
:10A2F000044AD2F88C3023F440131843C2F88C007F
:10A30000704700BF00380240044AD2F88C3023F472
:10A3100040031843C2F88C00704700BF0038024069
:10A32000044AD2F88C3023F440331843C2F88C002E
:10A33000704700BF00380240014B1860704700BFF3
:10A34000E0114742044A136B19B923EA0000106375
:10A35000704718431063704700380240044A536B3B
:10A3600019B923EA000050637047184350637047DF
:10A3700000380240044A936B19B923EA0000906345
:10A38000704718439063704700380240044A136CCA
:10A3900019B923EA0000106470471843106470472D
:10A3A00000380240044A536C19B923EA0000506493
:10A3B000704718435064704700380240044A1369DC
:10A3C00019B923EA00001061704718431061704703
:10A3D00000380240044A536919B923EA0000506169
:10A3E000704718435061704700380240044A93692F
:10A3F00019B923EA000090617047184390617047D3
:10A4000000380240044A136A19B923EA00001062B6
:10A41000704718431062704700380240044A536A7C
:10A4200019B923EA00005062704718435062704720
:10A4300000380240044A136D19B923EA0000106580
:10A44000704718431065704700380240044A536D46
:10A4500019B923EA000050657047184350657047EA
:10A4600000380240044A936D19B923EA0000906550
:10A47000704718439065704700380240044A136ED5
:10A4800019B923EA00001066704718431066704738
:10A4900000380240044A536E19B923EA000050669E
:10A4A000704718435066704700380240044A1378DA
:10A4B00019B923EA000010707047184310707047F4
:10A4C0000D3802404309012B0BD0022B094B0CBF66
:10A4D0001A6F5A6F00F01F0322FA03F000F0010018
:10A4E0007047044B1A6800F01F0322FA03F000F0D3
:10A4F000010070470038024000B583B0002301938B
:10A5000000E048B93120FFF7DDFF019B01330193E3
:10A51000019BB3F5A04FF4D13120FFF7D3FF0030FA
:10A5200018BF012003B05DF804FB00BF024A536F5F
:10A5300043F080735367704700380240034BDB6879
:10A54000184214BF01200020704700BF00380240AD
:10A55000014B1870704700BF0E38024008B52D4BF4
:10A5600098421BD02C4B984224D02C4B98422DD093
:10A570002B4B984236D02B4B98423FD02A4B9842D7
:10A5800000D008BD4FF400100121FFF747FF4FF442
:10A5900000100021BDE80840FFF740BF4FF4805095
:10A5A0000121FFF73BFF4FF480500021BDE8084038
:10A5B000FFF734BF4FF480400121FFF723FF4FF432
:10A5C00080400021BDE80840FFF71CBF4FF4004069
:10A5D0000121FFF717FF4FF400400021BDE80840BC
:10A5E000FFF710BF4FF400500121FFF717FF4FF4A2
:10A5F00000500021BDE80840FFF710BF4FF4801065
:10A600000121FFF70BFF4FF480100021BDE8084047
:10A61000FFF704BF0030014000380040003C00401C
:10A6200000340140005001400054014010B4038840
:10A6300003F441544A880B8813438A881343CA8819
:10A6400013430A8913434A8913438A891343CA89E6
:10A65000134323439BB20380838B23F400631B04C7
:10A660001B0C83830B8A03825DF8044B704700BF89
:10A67000F0B5838B23F47B6323F00F031B041B0CC7
:10A68000838302230384878BBFB28B688E88022B5F
:10A690004CD0002E14BF4FF0020E4FF0010E294A8D
:10A6A000946824023DD4274CD4F88450D4F88420F4
:10A6B000646804F03F0C244CB4FBFCF4C5F388152B
:10A6C00005FB04F4C2F30272B4FBF2F4CD88B5F5D5
:10A6D000007F2DD04FEA4E12B4FBF2F202EB820261
:10A6E0005200B2FBF3F305339AB2184BA3FB0223DB
:10A6F000DB0803F001025B089C1EFD2C94BF43EABB
:10A70000022302232B439BB203840B881F4347F48D
:10A7100000674B883B438A8913439BB21E43868361
:10A72000F0BD946824F400049460BCE7CD88E9E7A8
:10A73000240A04EB84046400B4FBF3F305339AB2F7
:10A74000D3E700BF0038024000127A00CDCCCCCC59
:10A750000023038043808380C380038143818381FE
:10A76000C3810723038270470023036043600222F2
:10A7700082608381704700BF038829B923F04003BA
:10A780001B041B0C038070479BB243F04003038003
:10A79000704700BF838B29B923F480631B041B0C13
:10A7A000838370479BB243F480638383704700BF09
:10A7B000038823F400631B041B0C038003889BB2F3
:10A7C00019430180704700BF0388B1F5804F05D061
:10A7D00023F480431B041B0C038070479BB243F49B
:10A7E00080430380704700BF4FF6FF6399420388A0
:10A7F00004D09BB243F480730380704723F48073CA
:10A800001B041B0C03807047838829B923F00403C1
:10A810001B041B0C838070479BB243F004038380AE
:10A82000704700BF838829B923F010031B041B0C59
:10A83000838070479BB243F010038380704700BF52
:10A8400030B4838B23F47B6323F00F031B041B0CB6
:10A85000838302230384828B92B20C8824F40074D5
:10A86000A4B2002C0CBF4FF4807500254C88224305
:10A8700042F400628B8813438A8913439BB22B43B3
:10A88000838330BC704700BF808980B2704700BFAF
:10A8900081817047038829B923F400531B041B0CE2
:10A8A000038070479BB243F400530380704700BF9E
:10A8B00003889BB243F4805303807047012914BF7F
:10A8C000008B808A80B27047008A80B2704700BFD8
:10A8D00083889BB21AB923EA01018180704719432A
:10A8E00081807047090901238B409BB22AB9828875
:10A8F00092B222EA030383807047828892B21343A4
:10A90000838070470389194214BF012000207047DB
:10A91000C94389B20181704710B483889CB203890E
:10A920009BB201F00F00012202FA00F0184005D09E
:10A9300009098A40144214BF012000205DF8044B2D
:10A94000704700BF01F00F0101238B40DB439BB236
:10A950000381704708B54FF480400121FFF75EFD89
:10A960004FF480400021BDE80840FFF757BD00BF0D
:10A97000014B1860704700BF00380140014B186060
:10A98000704700BF2000274210B401F003039B0072
:10A9900001F0FC0101F1804101F59C318C680F222E
:10A9A0009A4024EA02028A608A68984002438A60D8
:10A9B0005DF8044B704700BF014B1860704700BF43
:10A9C000DC002742014B1860704700BF000427429B
:10A9D000024B186AC0F30020704700BF00380140E6
:10A9E00030B4048C24F001042404240C0484048B6B
:10A9F000A4B2058CADB224F0F304224342EA03135F
:10AA00009AB225F00A0545F0010529430283018425
:10AA100030BC704730B4048C24F010042404240C9F
:10AA20000484058B048CA4B225F440752D052D0DEE
:10AA300045EA022242EA03339BB224F0A00444F028
:10AA4000100444EA01118CB20383048430BC7047C3
:10AA500008B5604B984235D0B0F1804F3CD05E4B8A
:10AA6000984243D05D4B98424AD05D4B984251D0BA
:10AA70005C4B984258D05C4B98425FD05B4B9842FD
:10AA800066D05B4B98426DD05A4B984276D05A4B69
:10AA900098427FD0594B984200F08880584B98429A
:10AAA00000F08E80574B984200D008BD4FF4807064
:10AAB0000121FFF7A7FC4FF480700021BDE808409A
:10AAC000FFF7A0BC01200146FFF7A8FC01200021F0
:10AAD000BDE80840FFF7A2BC01200146FFF792FC49
:10AAE00001200021BDE80840FFF78CBC02200121B5
:10AAF000FFF788FC02200021BDE80840FFF782BC78
:10AB000004200121FFF77EFC04200021BDE808405D
:10AB1000FFF778BC08200121FFF774FC0820002112
:10AB2000BDE80840FFF76EBC10200121FFF76AFC6A
:10AB300010200021BDE80840FFF764BC202001215F
:10AB4000FFF760FC20200021BDE80840FFF75ABC59
:10AB500002200121FFF762FC02200021BDE808402D
:10AB6000FFF75CBC4FF480300121FFF757FC4FF436
:10AB700080300021BDE80840FFF750BC4FF40030A2
:10AB80000121FFF74BFC4FF400300021BDE80840E5
:10AB9000FFF744BC4FF480200121FFF73FFC4FF446
:10ABA00080200021BDE80840FFF738BC402001218B
:10ABB000FFF728FC40200021BDE80840FFF722BC39
:10ABC00080200121FFF71EFC80200021BDE8084005
:10ABD000FFF718BC000001400004004000080040DE
:10ABE000000C004000100040001400400004014030
:10ABF000004001400044014000480140001800406E
:10AC0000001C00400020004003889BB2204A904274
:10AC100012D002F5806290420ED0B0F1804F0BD07E
:10AC2000A2F58032904207D002F58062904203D0B4
:10AC300002F58062904203D123F070034A881343E7
:10AC4000144A90421CD002F58062904218D023F43E
:10AC500040739BB20A89134303804B68C3620B881D
:10AC600003850B4B984206D003F58063984202D0CF
:10AC70000123838270478B7A038601238382704786
:10AC800003804B68C3620B8803850123838270476E
:10AC900000000140001000404FF0FF3343600023EC
:10ACA0000380038143808372704700BF01858282E5
:10ACB000704700BF038823F070031B041B0C19436B
:10ACC0000180704741627047C1627047406A7047B7
:10ACD000008D80B2704700BF038829B923F00203BA
:10ACE0001B041B0C038070479BB243F002030380DC
:10ACF000704700BF038829B923F004031B041B0C11
:10AD0000038070479BB243F004030380704700BF89
:10AD1000038829B923F080031B041B0C03807047B0
:10AD20009BB243F080030380704700BF038823F089
:10AD300008031B041B0C038003889BB2194301808A
:10AD4000704700BF038823F440731B041B0C03806F
:10AD500003889BB219430180704700BF038829B95B
:10AD600023F001031B041B0C038070479BB243F0CC
:10AD700001030380704700BF70B4038C23F001030C
:10AD80001B041B0C0384038C8588ADB2028B22F05C
:10AD900073021204120C0E88164323F002042404DA
:10ADA000240C4B888A89134323439BB20E4A90425A
:10ADB0000AD002F58062904206D0858006838A68B8
:10ADC0004263038470BC704723F00803CA891343AD
:10ADD00023F004028B88134325F440754C8A0A8AB9
:10ADE00022431543ADB2E8E70000014030B4038CC4
:10ADF00023F010031B041B0C0384038C8588ADB265
:10AE0000028B22F4E6421204120C0C8842EA04225D
:10AE100094B223F020031B041B0C8A8943EA02131B
:10AE20004A8843EA02139BB2124A90420AD002F5C2
:10AE30008062904206D0858004838A68826303849E
:10AE400030BC704723F080039BB2CA8943EA0212E8
:10AE50004FF6BF7313408A8843EA02139BB225F46E
:10AE600040650A8A45EA82054A8A45EA8205ADB20A
:10AE7000E1E700BF0000014030B4038C23F480738D
:10AE80001B041B0C0384038C8488A4B2828B22F0E5
:10AE900073021204120C0D88154323F400731B0473
:10AEA0001B0C8A8943EA02234A8843EA02239BB2A5
:10AEB000124A90420AD002F58062904206D0848005
:10AEC00085838A68C263038430BC704723F40063BF
:10AED0009BB2CA8943EA02224FF6FF3313408A88A5
:10AEE00043EA02239BB224F440540A8A44EA02143F
:10AEF0004A8A44EA0214A4B2E1E700BF000001401C
:10AF000030B4038C23F480531B041B0C0384038C88
:10AF10008488A4B2828B22F4E6421204120C0D88BB
:10AF200042EA052292B223F400531B041B0C8D89C4
:10AF300043EA05334D8843EA05339BB20A4DA842E4
:10AF40000AD005F58065A84206D0848082838A688D
:10AF50000264038430BC704724F480440D8A44EAC0
:10AF60008514A4B2F1E700BF000001400023038074
:10AF70004380838083608381C381038243827047DF
:10AF800030B400F11805038C9CB201238B4024EAF5
:10AF90000303038421F0080373B10439C1F34E01A4
:10AFA000485948F6FF7303404B514B59120292B275
:10AFB0001A434A5130BC7047490868584FF68F739E
:10AFC00003406B506B581A436A5030BC704700BF47
:10AFD0004163704781637047C16370470164704784
:10AFE000038B23F070031B041B0C19430183704770
:10AFF000038B23F4E0431B041B0C43EA012189B2B9
:10B0000001837047838B23F070031B041B0C1943CF
:10B0100081837047838B23F4E0431B041B0C43EABA
:10B02000012189B281837047038B23F008031B043D
:10B030001B0C194301837047038B23F400631B042B
:10B040001B0C43EA012189B201837047838B23F0F3
:10B0500008031B041B0C194381837047838B23F463
:10B0600000631B041B0C43EA012189B281837047F2
:10B07000038B23F004031B041B0C1943018370474B
:10B08000038B23F480631B041B0C43EA012189B268
:10B0900001837047838B23F004031B041B0C1943AB
:10B0A00081837047838B23F480631B041B0C43EA6A
:10B0B000012189B281837047038B23F080031B0435
:10B0C0001B0C194301837047038BC3F30E0343EA40
:10B0D000012189B201837047838B23F080031B0415
:10B0E0001B0C194381837047838BC3F30E0343EA20
:10B0F000012189B281837047038C23F002031B0472
:10B100001B0C194301847047038C23F008031B04B4
:10B110001B0C194301847047038C23F020031B048C
:10B120001B0C43EA011189B201847047038C23F0A0
:10B1300080031B041B0C43EA011189B20184704790
:10B14000038C23F400731B041B0C43EA012189B216
:10B1500001847047038C23F400631B041B0C43EA37
:10B16000012189B201847047038C23F400531B042E
:10B170001B0C43EA013189B20184704710B4038C7F
:10B180009CB201238B4024EA03030384038C8A408E
:10B1900013439BB203845DF8044B704710B4038CD7
:10B1A0009CB204238B4024EA03030384038C8A406B
:10B1B00013439BB203845DF8044B70470023038064
:10B1C000438001228280C38003817047406B7047B7
:10B1D000806B7047C06B7047006C7047038B23F027
:10B1E0000C031B041B0C0383038B9BB219430183C9
:10B1F000704700BF038B23F440631B041B0C0383C5
:10B20000038B9BB243EA012189B20183704700BFDF
:10B21000F8B505460C46498800290CBF02270027CF
:10B22000A288012A0CBF02260126238893B1238914
:10B23000FFF7F0FB2846E188FFF7DCFF2846394698
:10B2400032462389FFF7CCFB2846E188BDE8F84069
:10B25000FFF7C4BF2389FFF7C3FB2846E188FFF748
:10B26000BDFF2846394632462389FFF7D3FB2846DF
:10B27000E188BDE8F840FFF7BDBF00BF838B23F036
:10B280000C031B041B0C8383838B9BB219438183A8
:10B29000704700BF838B23F440631B041B0C838324
:10B2A000838B9BB243EA012189B28183704700BF3F
:10B2B000F8B505460C460B8843B3042B52D0082B37
:10B2C0002FD04F88B1F804E00B89028C22F4805211
:10B2D0001204120C0284868B028C26F4407109053C
:10B2E000090D41EA0E2141EA033189B222F40053EB
:10B2F0005B045B0C43EA07339BB243F480538183C6
:10B300000384E188BDE8F840FFF7C4BF4988A288FC
:10B310002389FFF765FB2846E188BDE8F840FFF781
:10B320005DBF4E888F880A89018C21F480710904E1
:10B33000090C0184818B89B2038C9BB221F0F3014B
:10B3400041EA021292B23A4323F4206343EA06230D
:10B350009BB243F4807382830384E188BDE8F840A4
:10B36000FFF78CBF4988A2882389FFF753FB284643
:10B37000E188BDE8F840FFF73DBF00BF4A880B8871
:10B3800013438A881343CA8813430A8913434A899B
:10B3900013438A8913439BB2A0F84430704700BF1F
:10B3A0000023038043808380C380038143818381A2
:10B3B000704700BFB0F8443021B9C3F30E03A0F8C2
:10B3C000443070476FEA43436FEA53439BB2A0F89F
:10B3D00044307047838829B923F004031B041B0CF5
:10B3E000838070479BB243F004038380704700BFA3
:10B3F000838829B923F001031B041B0C8380704749
:10B400009BB243F001038380704700BF83899BB2E6
:10B410001AB923EA0101818170471943818170477C
:10B4200081827047038A194214BF012000207047AF
:10B43000C94389B201827047038A828992B211EAB4
:10B44000030003D0114214BF01200020704700BF49
:10B45000C94389B2018270470A43A0F84820704767
:10B4600083899BB21AB923EA01018181704719438C
:10B4700081817047838829B923F008031B041B0CC2
:10B48000838070479BB243F008038380704700BFFE
:10B49000038923F007031B041B0C0381704700BFC3
:10B4A000038923F070031B041B0C194301810389DA
:10B4B0009BB243F007030381704700BF38B50446D1
:10B4C0000D4611460122602D0ED0FFF789FA218921
:10B4D00021F070010904090C2943218123899BB2C1
:10B4E00043F00703238138BDFFF794FAEFE700BF6D
:10B4F000038923F070031B041B0C1943018170475F
:10B50000838823F070031B041B0C838083889BB209
:10B5100019438180704700BF038923F007031B0490
:10B520001B0C038103899BB219430181704700BF43
:10B53000038923F080031B041B0C038103899BB246
:10B5400019430181704700BF10B40489E4B221435C
:10B550000A4342EA032399B201815DF8044B704724
:10B5600010B50446FFF7F0FF238923F077031B048F
:10B570001B0C43F07703238110BD00BF10B50446B8
:10B58000FFF7E2FF23899BB243F48043238110BD80
:10B5900070B40689048B058CADB226F0070636041C
:10B5A000360C314324F4407424F003042404240CA6
:10B5B00044F4807444F0010425F022052A4342EA51
:10B5C00003139DB201810483058470BC704700BFE2
:10B5D000838829B923F080031B041B0C83807047E8
:10B5E0009BB243F080038380704700BFA0F85010E7
:10B5F000704700BFD03A01080000002080400020C2
:10B600008040002010C2002082B0414AD2F8883029
:10B6100043F47003C2F888303E4B1A6842F00102CE
:10B620001A60002199601A6822F0847222F4803234
:10B630001A60394A5A601A6822F480221A60D96066
:10B64000009101911A6842F480321A601A4603E0B0
:10B65000009BB3F5A04F09D0136803F400330193A6
:10B66000009B01330093019B002BF1D0294B1B68F9
:10B6700013F4003318BF01230193019B012B14D055
:10B68000244A936823F400039360244BC2F8843067
:10B69000136843F08063136013681B01FCD54FF0FF
:10B6A00000621B4B9A6002B070471A4B1A6C42F052
:10B6B00080521A641A490A6842F440420A609A6841
:10B6C0009A609A6842F400429A609A6842F4A052E2
:10B6D0009A60144A5A601A6842F080721A601A46D8
:10B6E0000C4B11688901FBD540F205610E4A1160CF
:10B6F0009A6822F003029A609A6842F002029A6005
:10B700001A46936803F00C03082BFAD1B8E700BF80
:10B7100000ED00E00038024010300024002400302A
:10B720000070004008544007003C024016498B68F6
:10B7300003F00C03042B24D0082B09D0134B124A1E
:10B740009268C2F3031212498A5CD3400B617047BE
:10B7500048684B6803F03F0210F4800F4868C0F35C
:10B76000881014BF0B490949B1FBF2F303FB00F247
:10B77000054B5B68C3F3014301335B00B2FBF3F39A
:10B78000DDE7044BDBE700BF003802400024F40093
:10B790001000002000127A00F0B59DB006460D465C
:10B7A0004FF480000121FEF7CDFD4FF480700121A0
:10B7B000FEF7F8FD00240D944B4B0E930F9610945A
:10B7C000119512944FF4806313934FF40063149314
:10B7D0004FF4005315934FF4807316934FF40033D6
:10B7E00017931894012619961A941B943F4F3846C4
:10B7F0000DA9FDF793F838463146FDF7CDF80994C9
:10B800004FF440330A930B940C9409A8FCF772FD93
:10B8100003948DF810608DF81160059406940794D8
:10B820008DF82050324D284603A9FCF731FD072042
:10B830003146FEF787FD03278DF808708DF80B4021
:10B840001CACC02344F86C3D2A482146FEF70AF997
:10B85000019729482146FEF705F91E230193274841
:10B860002146FEF7FFF82846062132460B46FCF734
:10B8700095FD2846072102220623FCF78FFD284666
:10B8800008213A460623FCF789FD284609210422AF
:10B890000623FCF783FD28460B2105220623FCF72F
:10B8A0007DFD28460C2106221346FCF777FD28462D
:10B8B0000E2107220623FCF771FD28460D210822E0
:10B8C0000623FCF76BFD28463146FCF7F1FD2846C0
:10B8D0003146FCF7E3FD28463146FCF727FD2846B4
:10B8E000FCF7A2FD1DB0F0BD4C2001407064024089
:10B8F0000020014000000240000402400008024015
:10B900002DE9F0419CB004460D464FF48000012122
:10B91000FEF718FD4FF480600121FEF743FD4FF064
:10B9200080630D93454B0E930F9400241094119552
:10B9300012944FF4806313934FF4006314934FF405
:10B94000005315934FF4807316934FF400331793FD
:10B950001894012619961A941B94394F38460DA94C
:10B96000FCF7DCFF38463146FDF716F809944FF432
:10B9700040330A930B940C9409A8FCF7BBFC039486
:10B980008DF810608DF811600594069407948DF879
:10B9900020502C4D284603A9FCF77AFC2120314683
:10B9A000FEF7D0FC4FF003088DF808808DF80B40AF
:10B9B00008271CAC44F86C7D23482146FEF752F85A
:10B9C0004FF4F863019321482146FEF74BF82846CF
:10B9D000052132460623FCF7E1FC28460621022217
:10B9E0000B46FCF7DBFC2846414642460623FCF7A3
:10B9F000D5FC284604210A460623FCF7CFFC28463E
:10BA0000072105220623FCF7C9FC284639460622F1
:10BA10001346FCF7C3FC28463146FCF749FD28468F
:10BA20003146FCF73BFD28463146FCF77FFC2846B3
:10BA3000FCF7FAFC1CB0BDE8F08100BF4C220140CD
:10BA40001064024000220140000002400014024045
:10BA50002DE9F041069F2BB30FFA81FC134C54F8EB
:10BA6000216006F57A5E50F82C10951E013BDBB282
:10BA700002EB43020023DFF838808C1BB4F57A5FB9
:10BA800028BF4FF47A5438F8144025F8024F01319A
:10BA9000714528BF31468F4208BF01239542ECD142
:10BAA00040F82C101846BDE8F08100BFC4F900082A
:10BAB000944100201BB3F0B50FFA81FC114C54F8EF
:10BAC000215005F57A5E50F82C10941E013BDBB234
:10BAD00002EB43020C4F4B1B34F8026FB3F57A5F55
:10BAE00028BF4FF47A5327F813600131714528BFFE
:10BAF00029469442EFD140F82C100020F0BD0020E0
:10BB0000704700BFC4F90008944100202DE9F843B4
:10BB1000DDF8209053B3884600EB8104951E013B6D
:10BB2000DBB202EB4307002601202021FDF748FE8F
:10BB30000028F9D1206800F14053B3F1007F99BF8C
:10BB400020F0010003464FF05043184620601B8848
:10BB500025F8023F414601F051FC2060484508BFEE
:10BB60000126BD42E0D13046BDE8F8831E4630468E
:10BB7000BDE8F88333B3F8B50F4600EB8104951E9A
:10BB8000013BDBB202EB430601202021FDF718FE4A
:10BB90000028F9D1206800F14053B3F1007F99BF2C
:10BBA00020F0010003464FF050431846206035F85E
:10BBB000022F1A80394601F021FC2060B542E3D102
:10BBC0000020F8BD00207047034B4FF6FE421A805C
:10BBD0005A809A80DA807047A8BE0020174B00BFB9
:10BBE000013BFCD1154B00BF013BFCD1134B00BF07
:10BBF000013BFCD1114B00BF013BFCD1104B114A62
:10BC00001188C1F5006119805188C1F50061598022
:10BC1000918849429980D1884942D9801189494205
:10BC20001981528952425A81074B4FF6E3721A80AA
:10BC30005A809A80DA80FFF7C7BF00BF40420F00EA
:10BC400094BE00203C000020B0BE002000207047C1
:10BC500010B50F4B4FF400421A830E4A0421118392
:10BC60004FF4006119834FF4805119831024148319
:10BC70004FF480621A8300F0B1FF00F0EDFF42F252
:10BC80002873054922460A834A83013BFBD110BD34
:10BC900000000240000C024000100240494B4A4A9A
:10BCA0001188C1F5006119805188C1F50061598082
:10BCB000918849429980D1884942D9801189494265
:10BCC0001981528952425A81404B1A6912F4805F9D
:10BCD0001A69C2F3C0221BD13D4B1B695B0708D513
:10BCE0003C4B1B69C3F3800343F00203DBB252B247
:10BCF00020E0384B1B69C3F3800352B2012A1FD0E6
:10BD0000032A01D1032B42D00022334B1A60704723
:10BD100042F00202D2B2A3F5A0531B695907E8D53D
:10BD20002C4B1B69C3F3800343F00203DBB252B216
:10BD3000022A17D0012AE3D10022274B1A6070474C
:10BD4000012BE1D125480288254B52421A80254912
:10BD50000A8852425A80828852429A808A88524285
:10BD6000DA80D1E7022BCFD11F4B204A9188A1F571
:10BD700000611980D188A1F5006159809189A1F5F0
:10BD800000619980D289A2F50062DA80BCE70F4B8E
:10BD90001B695B05B8D4164B1B699804B4D40D4BD2
:10BDA0001A699107B0D41B699A05ADD40A4A136881
:10BDB0000133136040F6B832934200D07047FFF76A
:10BDC00047BF00BF94BE002048000020001802407A
:10BDD00000040240000002408040002000BF00201C
:10BDE000B0BE002000C00020A8BE00202C00002013
:10BDF00000080240012070472DE9F04182B040F276
:10BE00000113019302200121FEF79CFA0820012171
:10BE1000FEF798FA4FF0100802AC44F8088D094F6D
:10BE200038462146FDF71EFE4FF480560096064D1B
:10BE300028462146FDF716FEA7F81A806E8302B049
:10BE4000BDE8F08100040240000C0240F8B506464F
:10BE50000F461546314C4FF49613236004E02368D7
:10BE60005A1E2260002B56D028464FF40031FEF7B0
:10BE7000A9F80028F3D128460121FDF76BFF4FF404
:10BE80008053236004E023685A1E2260002B42D0B6
:10BE900028462349FEF77CF80028F4D028462021C4
:10BEA0000022FDF773FF4FF48053236003E0236803
:10BEB0005A1E22607BB328461A49FEF769F800280B
:10BEC000F5D028463146FDF7FBFF4FF48053236041
:10BED00003E023685A1E2260EBB128461249FEF7A0
:10BEE00057F80028F5D028463946FDF7E9FF4FF40A
:10BEF0009613236003E023685A1E22605BB1284634
:10BF00000A49FEF75FF80028F5D028460121FDF721
:10BF10002FFF0020F8BD0120F8BD00BF2400002045
:10BF200001000300820007008000070004000010E9
:10BF300070B506460C46072003213246FFF786FF00
:10BF4000012C12D00F4D00240134E4B2204615F824
:10BF5000011B3246FFF77AFF062CF5D1072002219C
:10BF60003246BDE87040FFF771BF074D0024013431
:10BF7000E4B2204615F8011B3246FFF767FF062C96
:10BF8000F5D1EBE784F900088CF900082DE9F04FB2
:10BF900085B04FF480000121FEF7F8F94FF400104E
:10BFA0000121FEF7F3F94FF0000BADF804B04BF6AA
:10BFB000FF7AADF806A04FF03309ADF808904FF4C2
:10BFC0008068ADF80A804FF48047ADF80C704CF2F1
:10BFD000503604AC44F8106D134D2846FDF7E0FDD3
:10BFE00028462146FDF712FE28460121FDF78CFE6A
:10BFF000ADF804B0ADF806A0ADF80890ADF80A8031
:10C00000ADF80C700096A5F580652846FDF7C8FDD3
:10C0100028462146FDF7FAFD28460121FDF774FE6A
:10C0200005B0BDE8F08F00BF005800402DE9F04397
:10C0300085B080464FF480400121FEF7A7F9294DD5
:10C040002846FEF78BFACDF808801027ADF802706D
:10C050000326ADF804600023ADF80C304FF40074F3
:10C06000ADF80040ADF8064028466946FEF700FBF3
:10C07000DFF8749048466946FEF7E2FB2846012146
:10C08000FEF788FB48460121FEF784FB4FF4004091
:10C090000121FEF77BF905F580652846FEF75EFA7B
:10C0A000CDF80880ADF80270ADF804600823ADF853
:10C0B0000C30ADF80040ADF8064028466946FEF762
:10C0C000D7FA4FF040206946FEF7BAFB2846012117
:10C0D000FEF760FB4FF040200121FEF75BFB05B04F
:10C0E000BDE8F08300380040003400402DE9F04FF7
:10C0F00083B006200121FEF725F907200121FEF774
:10C1000021F94FF002088DF804808DF80580012395
:10C110008DF8063000278DF8077002AC4FF44063AD
:10C1200044F8083D5A4D28462146FDF79BFC4FF444
:10C130004073009328462146FDF794FC28460821C9
:10C140000422FDF719FD284609210422FDF714FDFC
:10C1500028460A210422FDF70FFD28460B21042260
:10C16000FDF70AFD8DF804804FF003098DF8059066
:10C170008DF806708DF807704FF4805BCDF800B035
:10C1800028462146FDF76EFC4FF480430093284675
:10C190002146FDF767FC4FF40053009328462146E3
:10C1A000FDF760FC4FF40043009328462146FDF75D
:10C1B00059FC10230093DFF8E0A050462146FDF71C
:10C1C00051FC4FF400630093324E30462146FDF798
:10C1D00049FC4FF48063009330462146FDF742FC52
:10C1E000CDF800B030462146FDF73CFC28460C2136
:10C1F0000522FDF7C1FC28460D210522FDF7BCFCF8
:10C2000028460F210522FDF7B7FC28460E210522FE
:10C21000FDF7B2FC504604210622FDF7ADFC304686
:10C220000A210622FDF7A8FC30460C210622FDF764
:10C23000A3FC30460B210522FDF79EFC8DF80480FF
:10C240008DF805908DF806708DF8077080230093A7
:10C2500030462146FDF706FC304607210622FDF751
:10C260008BFC8DF804808DF805908DF806708DF8A4
:10C2700007704023009330462146FDF7F3FB30461C
:10C2800006210522FDF778FC03B0BDE8F08F00BF62
:10C2900000040240000802400000024008B5FFF719
:10C2A00025FFFFF773FE10220B4B1A834CF250311F
:10C2B00000BF0139FCD10948FFF73AFE4FF4805224
:10C2C000074B1A834CF2503100BF0139FCD10548AD
:10C2D000BDE80840FFF72CBE0004024000540040B7
:10C2E000000C02400058004010B582B00120FDF75C
:10C2F000DFFF4FF40073009302238DF80430032313
:10C300008DF8053000238DF806308DF80730064C87
:10C3100020466946FDF7A6FB204609210522FDF7C8
:10C320002BFC02B010BD00BF000802402DE9F04F09
:10C3300087B004A8FDF7E0FB01248DF814404FF00E
:10C34000000C8DF815C08DF816C08DF817C0CDF80B
:10C3500004C020462146FDF7F5FF4FF4C053049377
:10C36000954E304604A9FDF77DFB10202146FDF7D0
:10C37000E9FF10230493DFF8548240460DEB0301DC
:10C38000FDF770FB08202146FDF7DCFF1023049326
:10C390008A4D28460DEB0301FDF764FB204621463C
:10C3A000FDF7D0FF4FF4806204920392304604A957
:10C3B000FDF758FB20462146FDF7C4FF4FF400432C
:10C3C00004930293304604A9FDF74CFB0820214654
:10C3D000FDF7B8FF4FF0040ACDF810A0284604A9D5
:10C3E000FDF740FB15202146FDF7ACFF0823049321
:10C3F000404604A9FDF736FB4FF4807BCDF810B022
:10C400006F4F384604A9FDF72DFB4FF02009CDF8FA
:10C410001090384604A9FDF725FB4FF00803A8F853
:10C420001A30A7F818B0A7F818901B202146FDF77E
:10C4300089FFCDF81090284604A9FDF713FB4FF0B3
:10C44000400BCDF810B0284604A9FDF70BFB802364
:10C4500004935C4804A9FDF705FBCDF810B04046F5
:10C4600004A9FDF7FFFACDF81090304604A9FDF7B6
:10C47000F9FAA5F81A90A5F81AB0524B4FF08002BD
:10C480005A83A8F81AB0A6F81A90DDF804C08DF8FF
:10C4900014C04FF002038DF815308DF817401320AB
:10C4A0002146FDF74FFF4FF400630493464804A96B
:10C4B000FDF7D8FA4FF480510491434804A9FDF7E1
:10C4C000D1FACDF810A0304604A9FDF7CBFACDF88B
:10C4D00010A03C4804A9FDF7C5FA41202146FDF70C
:10C4E00031FF02230493304604A9FDF7BBFA039AF7
:10C4F0000492354804A9FDF7B5FA10202146FDF74E
:10C5000021FFCDF81090404604A9FDF7ABFADDF805
:10C5100004C08DF817C0CDF810A0404604A9FDF75F
:10C52000A1FA4D202146FDF70DFF8DF817404FF47D
:10C5300000520492384604A9FDF794FA4FF40072B1
:10C540000492304604A9FDF78DFA4FF002038DF8EE
:10C55000173080230493284604A9FDF783FACDF809
:10C5600010B0194804A9FDF77DFA08202146FDF70F
:10C57000E9FE4FF400630493284604A9FDF772FA1C
:10C5800008230493284604A9FDF76CFA8DF8174098
:10C5900050462146FDF7D6FE029B0493384604A977
:10C5A000FDF760FA4FF480430493384604A9FDF781
:10C5B00059FA07B0BDE8F08F00000240000C0240BD
:10C5C000000802400004024000180240001002402F
:10C5D000704700BF30B585B004200121FDF7D6FEBD
:10C5E0001E238DF8003003238DF801308DF80230C2
:10C5F00001248DF803406846FBF7E4FD01A8FEF72F
:10C600004BFB4FF4FA6302930023ADF80430ADF80E
:10C610000C30ADF80630084D284601A9FEF7F4FAB3
:10C62000284621462246FEF7F1FE28462146FEF71F
:10C6300095FB05B030BD00BF000800402DE9F0417A
:10C64000B8480121FEF704FFB74D2B6913F0040F22
:10C650004EF2010318BF4FF46043B44C628A43EAC0
:10C6600042039BB26382DBB2FE2B00F0F080AE4B44
:10C670001A6992065DBF10221A834FF460434EF28E
:10C680000103AA49228843EA42039BB22380B3F5FF
:10C690007F4F00F0D280A64B1B6913F4005F4EF26F
:10C6A000010318BF4FF46043A049628843EA420384
:10C6B0009BB26380B3F5704F00F0B7809D4B1B6950
:10C6C00013F4007F4EF2010318BF4FF46043974903
:10C6D000A28843EA42039BB2A380B3F5704F00F0F7
:10C6E0009C80954B1B6913F0800F4EF2010308BF2D
:10C6F0004FF46043E28843EA42039BB2E3804FF683
:10C70000F872934200F084808C4B1B6913F0400F49
:10C710004EF2010308BF4FF460438449228943EA83
:10C7200042039BB223814FF6F87293426AD0834B47
:10C730001B6913F4806F4EF2010318BF4FF460437E
:10C740007A49628943EA42039BB26381B3F5704F31
:10C750004CD0784B1B6913F0020F4EF2010318BF47
:10C760004FF460437149A28943EA42039BB2A3811B
:10C77000B3F5704F2ED0704B1B6913F4006F4EF25F
:10C78000010308BF4FF46043E28943EA42039BB2CE
:10C79000E3814FF6F872934217D0674B1B6913F091
:10C7A000080F4EF2010308BF4FF46043228A43EAA8
:10C7B00042039BB223824FF6F872934203D10122C7
:10C7C0005A4B83F83120BDE8F0810122574B83F8A2
:10C7D0003020E2E791F82930002B54D191F82D2038
:10C7E000002A00F0BD8081F82D30C4E791F8283090
:10C7F000002B44D191F82C20002A00F0878081F88A
:10C800002C30A6E7012381F8213081F825308EE70E
:10C810000122464B83F8202076E74B7E63BB4A7F9C
:10C82000002A00F0AC804B775BE70B7E0BBB0A7FE6
:10C83000002A00F09E800B7740E700234B750A7DAD
:10C84000012A57D03E4A136001230B7523E70023CA
:10C850002375627D012A1AD008232B8302F02AFE59
:10C8600010232B8302F01AFE02F01EFE01236375D3
:10C87000FDE600230B7621E700234B7631E700230A
:10C8800081F8283065E7002381F8293073E7637564
:10C890002B4B1F682B4ED6ED007A07EE107AB8EEC0
:10C8A000477AF8EE677AC7EE277A9FED277AF4EE9B
:10C8B000C77AF1EE10FA254D06DC9FED257AF4EEED
:10C8C000C77AF1EE10FA6AD564232B80DFF858801E
:10C8D0000823A8F8183002F0EDFD1023A8F818304E
:10C8E00002F0DCFD376001221A4B1A702B88013BE5
:10C8F0002B80BCE60B75124908681249086016497E
:10C900000B6016490B60134B1A70C4E691F82A307D
:10C91000002B3FD191F82E20002A4DD081F82E30E7
:10C9200017E700BF000800400010024084400020CC
:10C930000008024000000240000C024000180240C3
:10C94000F8C1002020C100200AD7833F2800002022
:10C95000EC51783FB8BE002008C20020FCC1002086
:10C9600091F82B309BB991F82F200AB381F82F3022
:10C9700001E78B7E8BB98A7F12B38B779EE6CB7EE5
:10C980001BB9CA7F82B1CB77ABE6CA76A9E681F83C
:10C990002B20F0E681F82A20DBE68A768EE62B88CB
:10C9A000002B3FF464AE91E7012381F8213098E633
:10C9B000012381F83130DEE6012381F83030C8E60A
:10C9C000012381F8203079E6094B1868094A11687B
:10C9D000884208D212681B68B3EB520F02D31022B0
:10C9E000054B5A8370471022034B1A8302F056BD41
:10C9F00008C2002020C100200010024030B40346CD
:10CA0000234A52F82050234951F82040A5421FD212
:10CA100052F8200051F82310B0EB510F09D203EB6C
:10CA200043011D4800EB4101097901291DD030BCAB
:10CA3000704783B94FF4807203F1804303F50233EA
:10CA40005A834FF40062A3F500635A8330BC7047E9
:10CA500030BC02F035BD2022104B5A834FF4805277
:10CA6000A3F500635A8330BC704752F82320B2F517
:10CA70007A7FDCD31BB12022084B5A83D7E74FF4CF
:10CA8000807203F1804303F502335A83CFE700BF7E
:10CA900000C2002018C10020CCC1002000080240C4
:10CAA00000EB40020B4B13F8123023B148B91022AF
:10CAB000094B1A83704748B14FF48062074B5A8381
:10CAC00070474FF48062054B1A8370471022024B67
:10CAD0005A837047CCC10020000C02400000024085
:10CAE0002DE9F0410746FCF7FDF8F320FCF78EF93D
:10CAF0000D4C04F13006002502E00835B4420ED09A
:10CB000054F8043BBB42F8D128460221FCF7B6F9A1
:10CB100040EA08005FFA80F80835B442F0D1FCF72B
:10CB2000EFF84046BDE8F08194F900082DE9F041A6
:10CB300007460D4C04F13006002502E00835B442EA
:10CB40000ED054F8043BBB42F8D128460221FCF732
:10CB500095F940EA08005FFA80F80835B442F0D150
:10CB60004046BDE8F08100BF94F9000808B5FCF725
:10CB7000B9F8F320BDE80840FCF748B90346084679
:10CB80001946FCF7A5BA00BF034608461946FCF74C
:10CB90005FBA00BFFCF7B4B872B1F8B506461546E7
:10CBA0000F1AF01916F8011BFCF792FA2043C4B2D1
:10CBB000013DF6D12046F8BD2046704732B102440F
:10CBC000091A0B5800F8013B9042FAD1704700BF98
:10CBD000006870470068C0B2704700BF184B194A20
:10CBE000B2F900101960B2F902105960B2F90410DC
:10CBF0009960B2F90610D960B2F908101961B2F95A
:10CC00000A205A61104B114AB2F900101960B2F9AA
:10CC100002105960B2F904109960B2F90620DA6086
:10CC20000B4B0C4AB2F900101960B2F902105960AE
:10CC3000B2F904109960B2F90620DA60704700BFBB
:10CC4000CCBE002094BE0020BCBE0020A8BE0020A8
:10CC5000E4BE0020B0BE0020F8B5FFF787FF1648FD
:10CC6000FFF764FF154B186800F12A4000F5AA0091
:10CC70001149FFF789FF124D124C134E55F8040B62
:10CC80002146FFF781FF0434B442F7D10F4E104D17
:10CC9000104C114F56F8040B2146FFF775FF55F85D
:10CCA000040BA4F11001FFF76FFF0434BC42F1D173
:10CCB000BDE8F840FFF76EBF00400008B840002014
:10CCC000CCBE0020044000081C400008BCBE002070
:10CCD000E4BE00202C4000083C40000808B50122BA
:10CCE000034B1A60FFF77AFFBDE80840FFF7B4BFB7
:10CCF000B8400020F0B59DF81C50D0F800E00FB20D
:10CD00007E000324B440E44304EA0E0EB2404EEA2F
:10CD10000202026042684FF0010E0EFA01FE22EAA2
:10CD20000E028B4013434360836804EA03029DF8BC
:10CD30001430B34013438360C26822409DF818400A
:10CD400004FA06F342EA0304C460072909D8026A18
:10CD5000BF000F23BB4022EA0303BD401D43056211
:10CD6000F0BD426A083989000F238B4022EA030391
:10CD70008D401D434562F0BD4FF40052014B1A60D7
:10CD8000704700BF00E100E04FF48042014B1A60A1
:10CD9000704700BF00E100E010B54FF40010002123
:10CDA000FDF7D0FA0020FDF783FA0020FDF7B2F975
:10CDB000084C20460021FBF7EFFD2046FBF726FD3F
:10CDC000483C20460021FBF7E7FD2046BDE8104027
:10CDD000FBF71CBD886002402DE9F04F83B04FF493
:10CDE00000100121FDF7AEFA0020FDF761FA0120E5
:10CDF000FDF790F9DFF8689148460021FBF7CCFD7C
:10CE00004846FBF703FD4C4D00262E604B4B6B60F4
:10CE10004B4BAB604023EB604FF0200CC5F810C0CB
:10CE2000CDF804C06E614FF48067AF614FF40063CA
:10CE3000EB614FF4005AC5F820A04FF480736B6289
:10CE40004FF40033AB62EE622E636E63AE6348460E
:10CE50002946FBF763FD484686210122FBF720FEA9
:10CE6000DFF800B1584602210122FDF731FDDFF85D
:10CE7000F88040463146FBF78FFD4046FBF7C6FC85
:10CE8000304C4FF08062304B84E80C002F4BA36095
:10CE90000093E660DDF804C0C4F810C06661A761C5
:10CEA0004FF40063E361C4F820A04FF48073636221
:10CEB0004FF40033A362E66226636663A6634046CE
:10CEC0002146FBF72BFD40469E210122FBF7E8FDA2
:10CED0001F480D220270012747708670C770FBF74C
:10CEE00071F91C4AC2F880A04FF0402039463A46FA
:10CEF000FDF7EEFC184A124B1360184A009B1360B2
:10CF000048462946FBF70AFD40462146FBF706FD49
:10CF100048463946FBF740FD40463946FBF73CFDA5
:10CF200058463946FDF736FC4FF04020394603B0ED
:10CF3000BDE8F04FFDF72EBC88BF00200C3C004040
:10CF400040BF0020C4BF00200C40004000BF0020B4
:10CF500084BF002000E100E0FCBE002080BF002074
:10CF600088600240003C00404060024010B54FF431
:10CF700000100021FDF7E6F9084C20460021FBF7E0
:10CF80000BFD2046FBF742FC183C20460021FBF736
:10CF900003FD2046BDE81040FBF738BC706002403E
:10CFA0002DE9F04F83B04FF400100121FDF7CAF9CD
:10CFB000DFF8708140460021FBF7EEFC4046FBF7AE
:10CFC00025FC4D4D00262E604C4B6B604C4BAB60EE
:10CFD0004023EB604FF0200CC5F810C0CDF804C022
:10CFE0006E614FF48063AB6100934FF4006BC5F842
:10CFF0001CB04FF400532B624FF480736B624FF4FC
:10D00000003AC5F828A0EE622E636E63AE63404618
:10D010002946FBF783FC404686210122FBF740FDB1
:10D02000DFF80491484602210122FDF751FC354FFB
:10D0300038463146FBF7B0FC3846FBF7E7FB324C8D
:10D040004FF0C062314B84E80C00314BA360E660C6
:10D05000DDF804C0C4F810C06661009BA361C4F889
:10D060001CB04FF4005323624FF480736362C4F822
:10D0700028A0E66226636663A66338462146FBF76E
:10D080004DFC38469E210122FBF70AFD21480E2364
:10D090000370012646708670C670FBF793F84FF454
:10D0A00080421D4BC3F88020DFF880B058463146DF
:10D0B0003246FDF70DFC194B114A1A60184B144A01
:10D0C0001A6040462946FBF729FC38462146FBF703
:10D0D00025FC40463146FBF75FFC38463146FBF7FE
:10D0E0005BFC48463146FDF755FB5846314603B0D8
:10D0F000BDE8F04FFDF74EBB40C000200C380040AB
:10D10000BCC00020586002407CC000200C340040AD
:10D1100000C00020F4BE002000E100E0F8BE0020C6
:10D12000FCC0002070600240003800400034004025
:10D1300008B51D484FF08251FBF77AFC1A484FF0B2
:10D140009051FBF775FC18484FF08851FBF770FCC5
:10D1500015484FF0C051FBF76BFCA8B912484FF0CF
:10D16000A051FBF765FC00B908BD104B1868104BC7
:10D1700019681022012300F09BFC0B484FF0A051CE
:10D18000BDE80840FBF772BC084B1868084B1968EB
:10D19000203020311022012300F08AFC02484FF099
:10D1A000C051FBF763FCD9E758600240FCC0002087
:10D1B000F8BE002008B510481049FBF739FCA8B9A3
:10D1C0000D480F49FBF734FC58B90B480D49FBF7E4
:10D1D0002FFC00B908BD08480A49BDE80840FBF724
:10D1E00045BC05480649FBF741FCEEE70248034908
:10D1F000FBF73CFCE4E700BF7060024001008010D8
:10D20000080000100400801008B51B481B49FBF7FC
:10D210000FFC19481A49FBF70BFC17481949FBF793
:10D2200007FC15484FF08151FBF702FC98B91248F2
:10D230001549FBF7FDFB00B908BD144B1868144BEA
:10D2400019681022002300F033FC0B480E49BDE89A
:10D250000840FBF70BBC0D4B18680D4B19682030CC
:10D2600020311022002300F023FC03484FF08151AD
:10D27000FBF7FCFBDBE700BF406002400000011051
:10D2800000000810000004100000101080BF0020F3
:10D29000FCBE002008B510481049FBF7C9FBA8B92F
:10D2A0000D480F49FBF7C4FB58B90B480D49FBF774
:10D2B000BFFB00B908BD08480A49BDE80840FBF7B4
:10D2C000D5BB05480649FBF7D1FBEEE70248034909
:10D2D000FBF7CCFBE4E700BF886002400100801050
:10D2E000080000100400801073B90A440E4B53F874
:10D2F000203003F180739A4203D302F17F429A42B5
:10D30000FBD222F0010070478A1A074B53F82030F5
:10D310009A42F6D202F180729A42F2D202F18072FF
:10D320009A42F7D3EDE700BFC4F9000810B4164BDA
:10D3300053F82030490000EB4004144A02EB440249
:10D340005278012A0ED0591A114B53F820309942C5
:10D3500003D201F180719942FBD321F001005DF805
:10D36000044B704719440A4B53F8203003F1807383
:10D370009942F2D301F17F419942FBD221F00100A1
:10D380005DF8044B704700BF24C10020CCC10020D1
:10D39000C4F90008124B53F82010124A52F820200A
:10D3A00043F82020104B03EB8003DFED107A93ED60
:10D3B000007AB4EEE77AF1EE10FA06D40C4B53F88B
:10D3C00020200C4B43F8202070470B4A42F82010D5
:10D3D000C3ED007A0022074B43F82020704700BFBE
:10D3E00024C1002000C1002008C100200AD7233C2E
:10D3F00018C1002044C100202CC1002001EB4102D3
:10D400000E4B03EB42035B785BB902300C4B53F8D5
:10D41000213003F18072904228BF184620F00100AD
:10D4200070470238064B53F8213098429CBF03F1F5
:10D430008070023820F00100704700BFCCC100208E
:10D44000C4F90008914213D013B10B4611461A4695
:10D45000914206D2814212D8824234BF002001207C
:10D460007047824209D281428CBF00200120704760
:10D47000081AB0FA80F04009704701207047002078
:10D48000704700BF4FF05043002243F8042BB3F124
:10D49000524FFAD12DE9F04F2DED028B83B0DFF81A
:10D4A0002882D8F800301BB94FF48043C8F8003008
:10D4B000794DDFF818B2DFF818A2DFF818C200269D
:10D4C0009FED768AA946D9F80040D8F80030B70019
:10D4D000E218734B43F82620724B43F82640724BF8
:10D4E00043F82640D8F80030704941F8263098EDCE
:10D4F000007AB8EE477ADBED007A67EE277AFCEE29
:10D50000E77A17EE903A23F00303B3F5000F28BF34
:10D510004FF400039AF8001000293FD0644A52F8F3
:10D5200026209A4243D0624ABB50604A42F82630D5
:10D53000604BF35C002B50D15F4BDA595B4B53F8D7
:10D54000263059009AF80130012B00F09080511AD2
:10D550008C4203D901F180718C42FBD804F18075B3
:10D5600021F001015548C1510091CDF804C04D4949
:10D57000C8590099FFF766FFDDF804C0C8B9DCEDB3
:10D58000007AF4EEC87AF1EE10FA5ED58CED008ADE
:10D590004B4BF850444B009ADA510AE0DCED007A2C
:10D5A000F4EEC87AF1EE10FA2FD4454ABB5004F1DC
:10D5B0008075424BDC51404BDD5109F104090BF100
:10D5C000140B0AF1060A0CF1040C26B103B0BDECF1
:10D5D000028BBDE8F08F012675E7384BDB590093CD
:10D5E00052F8262052009AF8013000998BBB0A4469
:10D5F00004F18075954203D802F17F429542FBD930
:10D6000022F001022C49CA51AFE7284840F82630E1
:10D610002B4BF95050F826305B009AF80110012985
:10D6200030D0D31AA34203D203F18073A342FBD3B9
:10D6300004F1807523F001031B4AD351194AD259D2
:10D640009A42B6D08CED008AB3E71E4B009AFA508E
:10D65000AFE78A1AA24203D202F18072A242FBD340
:10D6600004F1807522F001021349CA517DE711448B
:10D6700004F180758D423FF673AF01F17F418D4219
:10D68000FBD96DE7134404F18075AB42D2D303F1AB
:10D690007F43AB42FBD2CDE7C4F900080AD7233C55
:10D6A00024C1002000C100202CC1002018C100208E
:10D6B000BC400020AC4000203CC1002034C1002010
:10D6C00044C1002010C1002020C1002088C10020DA
:10D6D000CCC1002008C1002070B56E4BD3ED007A9C
:10D6E000F8EE677A85002A186B4B03EB820393ED03
:10D6F000007A67EE877AFCEEE77A17EE903A23F02D
:10D700000303B3F5000F28BF4FF40003634900EB98
:10D71000400252008E188A5C3AB3614A52F82010D7
:10D72000994230D042F820305E4941F820305E4BBB
:10D730001B5C4BB35D4B53F8204051F82020520046
:10D740007378002B7CD12244594951F8201001F103
:10D7500080718A4203D302F17F428A42FBD222F0D7
:10D760000102544941F8202026E053494C1994ED18
:10D77000007ADFED527AB4EEE77AF1EE10FA38D49F
:10D780004F4A42F8203070BD4A4B53F8202051F8E0
:10D79000201049007378012B5DD0511A444C54F885
:10D7A0002040A14203D201F18071A142FBD321F0BC
:10D7B00001043E4941F820400646424951F8200004
:10D7C0002146FFF73FFE0028DDD13B4B1D44DFED36
:10D7D0003B7A95ED007AB4EEE77AF1EE10FA47D590
:10D7E000C5ED007A364B43F82600374B43F8264008
:10D7F00070BD2C4C44F82030314B43F8202054F8B5
:10D800002030324A52F820205B007478012C33D04B
:10D81000D31A274A52F820209A4203D903F1807381
:10D820009A42FBD823F00103274A42F82030254AC8
:10D8300052F820209A42A6D00D44254B2B6070BD93
:10D84000A21A1B4951F820108A4288D202F1807234
:10D850008A42FBD383E71144154C54F8204004F16D
:10D860008074A142A3D301F17F41A142FBD29EE784
:10D87000184B43F8264070BD13440D4A52F820203F
:10D8800002F180729342CDD303F17F439342FBD2E6
:10D89000C8E700BF20C1002088C10020CCC1002003
:10D8A000BC40002018C10020AC40002034C1002042
:10D8B000C4F900083CC1002008C100200AD7233C5D
:10D8C00044C1002000C100202CC1002024C1002040
:10D8D0000AD7233C10C1002070B400EB4002314B4A
:10D8E00003EB42035B78002B4DD12F4D55F82020E0
:10D8F0002E4E56F82040A2428EBF131B02F18073B9
:10D900001B1B07EE903AF8EE677A27EE800AFCEED2
:10D91000C07A17EE903AE1B91919254C54F8204015
:10D9200004F18074A14203D301F17F41A142FBD2F3
:10D9300021F0010146F820101344A34203D303F160
:10D940007F43A342FBD223F0010345F8203070BC93
:10D950007047E11A164C54F82040A14203D201F15D
:10D960008071A142FBD321F0010146F82010D31AA7
:10D97000A342E8D203F18073A342E4D203F180739F
:10D98000A342F7D3DFE7094E56F82040064D55F87D
:10D99000202094428EBFA31A04F180739B1A07EED5
:10D9A000903AB0E7CCC100203CC1002034C1002037
:10D9B000C4F90008F0B4324C81006318D3ED007A4A
:10D9C000F5EEC07AF1EE10FA20DD9FED2E7A77EEBB
:10D9D000877AF7EE006AF4EEE67AF1EE10FA17DDD8
:10D9E00000221A60284D55F82060284A42F820602D
:10D9F000274E56F820207AB9264951F820402CB1FC
:10DA000045F8204041F8202083ED007AF0BC7047B3
:10DA1000C3ED007AF0BC70471F4B43F82020002272
:10DA200046F8202053F820301C4A52F820205B0092
:10DA300000EB40061A4F07EB46067678012E12D00F
:10DA4000D31A184A52F82020934203D203F180736C
:10DA50009342FBD323F0010345F820302144124BBD
:10DA60000B60F0BC704713440E4A52F8202002F1BC
:10DA700080729342EED303F17F439342FBD2E9E7F6
:10DA800008C100200AD7233C2CC1002000C100207F
:10DA900044C1002010C1002018C1002024C1002072
:10DAA000CCC10020C4F900080AD7233C704700BF4E
:10DAB0002DE9F04F9BB005460E461F4602EBD27291
:10DAC0004FEA62095B0008933B445B00B34A02EBF8
:10DAD000030ED35C002B40F0C881DFF8F4A25AF8A3
